:020000040001F9
:10C00000A04B00207DC5010085C5010087C501004A
:10C0100089C501008BC501008DC50100000000002D
:10C020000000000000000000000000008FC50100BB
:10C0300091C501000000000093C5010095C50100F5
:10C0400097C5010097C5010031D1010059CE01000B
:10C0500069CE010097C50100A1CB01009DCD010073
:10C0600097C5010097C5010097C5010097C501005C
:10C0700097C5010097C5010097C5010097C501004C
:10C0800097C5010079CD010097C5010097C5010052
:10C0900089CE010097C501008DCE010097C5010032
:10C0A00097C5010097C5010097C5010097C501001C
:10C0B00069CD010097C501000000000000000000EC
:10C0C00097C5010097C5010097C5010079CE010011
:10C0D00097C5010097C5010097C501000000000049
:10C0E0000000000000000000000000000000000050
:10C0F0000000000000000000000000000000000040
:10C10000000000000000000000000000000000002F
:10C11000000000000000000000000000000000001F
:10C40000DFF80CD000F05EFB0048004795FF01000C
:10C41000A04B0020401E00BF00BF00BF00BF00BFF8
:10C4200000BF00BF00BF00BF00BF00BF00BF00BF14
:10C4300000BF00BF00BF00BF00BF00BF00BF00BF04
:10C4400000BF00BF00BF00BF00BF00BF00BF00BFF4
:10C4500000BF00BF00BF00BF00BF00BF00BF00BFE4
:10C4600000BF00BF00BF00BF00BF00BF00BF00BFD4
:10C4700000BF00BF00BF00BF00BF00BF00BF00BFC4
:10C4800000BF00BF00BFC5D170470000401E00BF05
:10C4900000BF00BF00BF00BF00BF00BF00BF00BFA4
:10C4A00000BF00BF00BF00BF00BF00BF00BF00BF94
:10C4B00000BF00BF00BF00BF00BF00BF00BF00BF84
:10C4C00000BF00BF00BF00BF00BF00BF00BF00BF74
:10C4D00000BF00BF00BF00BF00BF00BF00BF00BF64
:10C4E00000BF00BF00BF00BF00BF00BF00BF00BF54
:10C4F00000BF00BF00BF00BF00BF00BF00BFC5D16D
:10C5000070470000401E00BF00BF00BF00BF00BF5B
:10C5100000BF00BF00BF00BF00BF00BF00BF00BF23
:10C5200000BF00BF00BF00BF00BF00BF00BF00BF13
:10C5300000BF00BF00BF00BF00BF00BF00BF00BF03
:10C5400000BF00BF00BF00BF00BF00BF00BF00BFF3
:10C5500000BF00BF00BF00BF00BF00BF00BF00BFE3
:10C5600000BF00BF00BF00BF00BF00BF00BF00BFD3
:10C5700000BF00BF00BFC5D170470000064880471C
:10C5800006480047FEE7FEE7FEE7FEE7FEE7FEE7B8
:10C59000FEE7FEE7FEE7FEE7B1CE010001C40100C1
:10C5A00040EA01039B0703D009E008C9121F08C035
:10C5B000042AFAD203E011F8013B00F8013B521EB5
:10C5C000F9D27047D2B201E000F8012B491EFBD22C
:10C5D00070470022F6E710B513460A46044619468E
:10C5E000FFF7F0FF204610BD2DE9FE4F81EA03045E
:10C5F00004F0004421F0004100944FF0000B23F0C0
:10C60000004350EA01045ED052EA03045BD0C3F356
:10C610000A54C1F30A552C44A4F2F3340194A0FB4C
:10C620000254C1F3130141F48011C3F3130343F423
:10C63000801301FB024400FB034E840A970A44EA7C
:10C64000815447EA8357A4FB076802958D0A05FBCE
:10C6500007854FEA932C04FB0C542705029D4FEAF3
:10C66000065847EA1637B5EB08056EEB070C870E40
:10C67000920E47EA811742EA8312A7FB0201B6EB4A
:10C680000B0164EB00042B0D43EA0C335E1844EB02
:10C690001C50DA465146E7FB0201C5F313044FEA8A
:10C6A0000B3343EA14534FEA0432019C43EA060376
:10C6B000A4F10C040294009CCDE900B400F0DCF875
:10C6C00003B0BDE8F08F00200146F9E72DE9F04DF9
:10C6D00081EA030404F0004B21F0004514464FF0BA
:10C6E000000A23F0004150EA050220D054EA01027A
:10C6F0001DD0C5F30A570246C5F31303C1F3130057
:10C70000C1F30A5640F4801543F48013A7EB0608E2
:10C71000101BD64608F2FD3873EB050002D308F172
:10C72000010801E092185B41B8F1000F03DA002024
:10C730000146BDE8F08D00204FF480110646844686
:10C740000EE0171B73EB050705D3121B63EB050304
:10C7500006434CEA010C49084FEA300092185B414D
:10C7600050EA0107EDD152EA030012D082EA040038
:10C7700083EA0501084305D0101BAB4106D2012214
:10C78000002306E000224FF0004302E06FF00102B8
:10C7900053101AEB06004CEB085110EB0A0041EB6A
:10C7A0000B01BDE8F04D00F058B80EB5C10F80EA9E
:10C7B000E0700844CA07002140F233438DE80E00C0
:10C7C0000A460B4600F058F803B000BD30B50B46E2
:10C7D000014600202022012409E021FA02F59D42B1
:10C7E00005D303FA02F5491B04FA02F52844151E85
:10C7F000A2F10102F1DC30BD2DE9F05F0546002019
:10C8000092469B4688460646814640241BE02846C1
:10C8100041464746224600F076F953465A46C01A2A
:10C82000914110D311461846224600F05DF92D1AA9
:10C8300067EB01084F4622460120002100F054F921
:10C8400017EB00094E41201EA4F10104DFDC48462D
:10C8500031462A464346BDE8F09F10B5141E73F1D9
:10C86000000408DA401C41F1000192185B411A43B0
:10C8700001D120F0010010BD2DE9F04D92469B46FC
:10C8800011B1B1FA81F202E0B0FA80F220329046A2
:10C8900000F02AF904460F4640EA0A0041EA0B017B
:10C8A00053465A46084313D0114653EA010019D0A3
:10C8B000C8F14002504600F026F905460E465046A3
:10C8C0005946424600F010F9084305D0012004E023
:10C8D00020463946BDE8F08D0020054346EAE07663
:10C8E0002C4337430A986305E40AA0EB08000022B2
:10C8F000FD0A44EA47540A3002D500200146E9E720
:10C90000010510196941DDE9084500196941BDE8D3
:10C91000F04DA2E72DE9FE4F804681EA0300C00FEB
:10C920000C46009021F0004123F00045B8EB0200D6
:10C93000A94105D24046214690461C460B46024678
:10C9400023F00040104347D0270DC7F30A00C3F37C
:10C950000A510290401A019040286BDAC3F3130089
:10C9600040F4801B0098924620B10023D2EB030ACA
:10C9700063EB0B0B01985946C0F14002504600F0A2
:10C98000B3F806460D4650465946019A00F0CBF8DA
:10C9900010EB08006141002487EA115284EAE77332
:10C9A0001A4340D0009A62B3019A012A4FEA075213
:10C9B00015DC001B61EB02014FF0004202EA075256
:10C9C000CDE90042001C41F5801132462B46FFF7AD
:10C9D00053FF03B0BDE8F08F40462146F9E7001B46
:10C9E00061EB0201001C41F5801300185B41201827
:10C9F000A2F5001747EB030140EAD570B6196D4167
:10CA000011E06D084FEA360645EAC0754FEA075255
:10CA1000001B61EB0201001C41F5801149084FEA3F
:10CA200030000019514132462B4603B0BDE8F04FAB
:10CA3000FFF713BF0098012240000023D0EB020251
:10CA400063EBE073009821464FEAE074B8EB000016
:10CA500061EB0401E9E783F000435BE781F000410B
:10CA600058E7C1F30A52C1F3130140F2FF3341F416
:10CA700080119A4202DA00200146704740F23343A7
:10CA80009A42A2F2334202DC524200F03CB800F07B
:10CA90002BB8000030B5041E71F1000404DB4FF028
:10CAA0000044404264EB0101141E73F1000405DBF5
:10CAB0001C464FF00043524263EB0403994208BF07
:10CAC000904230BD064C074D06E0E06840F001039F
:10CAD00094E8070098471034AC42F6D3FFF794FC73
:10CAE0006435020084350200202A04DB203A00FA73
:10CAF00002F1002070479140C2F1200320FA03F3B5
:10CB0000194390407047202A04DB203A21FA02F0B2
:10CB10000021704721FA02F3D040C2F12002914077
:10CB2000084319467047202A06DBCB17203A41FA02
:10CB300002F043EAE07306E041FA02F3D040C2F1AA
:10CB40002002914008431946704770B58C1810F8C0
:10CB5000015B15F0070301D110F8013B2A1106D142
:10CB600010F8012B03E010F8016B01F8016B5B1E5C
:10CB7000F9D12B0705D40023521E0DD401F8013B37
:10CB8000FAE710F8013BCB1A921C03E013F8015BA3
:10CB900001F8015B521EF9D5A142D8D3002070BD27
:10CBA0002DE9F84F0025DFF82C91A8464FF4807747
:10CBB00001242E46384604F037FB38B1D9F8040377
:10CBC000204203D0384604F025FB25433F1D640076
:10CBD000761CBFB2082EEDD34FF4BE74204604F08D
:10CBE00023FB38B1204604F015FB3B4845F00045D7
:10CBF000D0F80080394F15F0FF0F14D00126002423
:10CC00002E420CD009EB8401D1F81005D1F8101593
:10CC1000C0F3042057F82420C1F301419047760067
:10CC2000641C082CECD3002D52DA4FF0FF304FF08B
:10CC3000000A009000273C46284D291911F8500F92
:10CC400091F9001020F0C009491C32D00121009A4E
:10CC500001FA09FB1BEA020F2BD08609484602F0B5
:10CC60001BF955F820500DB9032E22D15946032E39
:10CC700001D14AEA010A4FEA890000F1A040D0F848
:10CC800000071BEA080FC0F3014002D0022802D0BF
:10CC90000FE003280DD1032E07D1022816D0022160
:10CCA000484604F078FA7F1CFFB215B13146484679
:10CCB000A847641C042CBFD3002F09D00648006885
:10CCC000404505D08046CDF800A0B3E70321E7E753
:10CCD000BDE8F88F0060004010050050A02800203B
:10CCE00000F01F02012191404009800000F1E02086
:10CCF000C0F88012704700F01F02012191404009E6
:10CD0000800000F1E020C0F80011704700F01F0221
:10CD1000012191404009800000F1E020C0F800129C
:10CD200070474907090E002806DA00F00F0000F1ED
:10CD3000E02080F8141D704700F1E02080F8001416
:10CD400070470000BFF34F8F05480168054A01F4A2
:10CD5000E06111430160BFF34F8F00BFFDE70000AA
:10CD60000CED00E00400FA050149024802F0ACBEF7
:10CD70003822002000C0014007480021C0F84011BF
:10CD8000C0F84411C0F84811C0F84C11C0F80011A7
:10CD9000C0F8041105F0DCB8001001402DE9FE4395
:10CDA0004FF4827004F09CFADFF89C80274F002635
:10CDB0004FF00109A8B12648414606608DF8006091
:10CDC0007868019023480068ADF80800F868A0B1C1
:10CDD0007860B88A3881FE60C1F80090396868468A
:10CDE00088474FF48A7004F07BFA48B11848103035
:10CDF000066087F82760BDE8FE8387F82760EDE7C7
:10CE00003C691EE0B4FA84F04FF00041C1408C430D
:10CE10004FF48C7101EB8005284604F061FA80B173
:10CE200045F80860A5F58C75E8088DF8040045F311
:10CE30008000401C8DF800908DF805003968684628
:10CE40008847002CDED1D6E700700040EC2A002095
:10CE500004710040347600400149024802F08EBE61
:10CE6000C42A00200030004002494FF0402002F068
:10CE70006FBE0000842A00200149024802F068BE0B
:10CE8000A42A00200030024005F006B8074810B57B
:10CE9000406830B18047002807D0BDE8104000F05E
:10CEA0006BBFBDE8104002F0D7BD10BD7822002056
:10CEB00070B59348924A00230078121D111D012578
:10CEC000062807D11478240704D10C78C4F303147E
:10CED000032C02D0062804D00FE08B4E894C7467D7
:10CEE0000EE01478240708D10C78C4F30314032C43
:10CEF00006D0042C04D0052C02D0062809D010E05E
:10CF00004FF08054D4F84442804EC4F3423434602D
:10CF100002E01478240704D10C78C4F30314032C22
:10CF200002D0062806D011E0794C266826F08076DB
:10CF300026600EE01478240708D10C78C4F303149B
:10CF4000032C06D0042C04D0052C02D006280AD0CD
:10CF500011E04FF08044C4F80C31C4F810316B4C30
:10CF6000241F236002E01478240704D10C78C4F352
:10CF70000314032C02D0062805D00CE0634A0320DA
:10CF8000643210600AE01478240704D10C78C4F3EA
:10CF90000314032C02D006280ED06BE05D48052256
:10CFA00002605C48783005605A4808300360594A8E
:10CFB0003F20121D106002E0107800075AD1087857
:10CFC000C0F30310052855D1534800685349086041
:10CFD0005148001D0068091D08604F48083000686E
:10CFE000091D08604C480C300068091D08604A485B
:10CFF00010300068091D0860474814300068091D9A
:10D0000008604548183000684449203108604248AB
:10D010001C300068091D08603F4820300068091D69
:10D0200008603D4824300068091D08603A482830EF
:10D030000068091D086038482C300068091D086028
:10D040003548303000683549403108603248343066
:10D050000068091D0860304838300068091D086004
:10D060002D483C300068091D08602B48403000689E
:10D07000091D086026487438016841F47001016098
:10D08000BFF34F8FBFF36F8F4FF01022D2F80C0217
:10D09000234CC107234811D0256001680029FCD02A
:10D0A000D2F80C1221F00101C2F80C12016800291B
:10D0B000FCD0236001680029FCD01AE0D2F80012ED
:10D0C000002903DBD2F80412002914DA2560016874
:10D0D0000029FCD01525C2F8005201680029FCD0B7
:10D0E000C2F8045201680029FCD0236001680029BD
:10D0F000FCD0FFF727FE0D490B48086070BD00000B
:10D10000E00F00F00DF0ADBA00C007403C05004054
:10D11000FCED00E0105600400404001020C5004063
:10D1200004E5014000E401400090D0038C2200207F
:10D130000348007F08B105F095BA05F00FBA00006A
:10D14000F82800200FB4054B10B503A9044A029833
:10D1500000F0EEF810BC5DF814FB000021F60100B1
:10D16000742200200FB4084B10B504A902AA03983A
:10D1700000F0DEF8044602A9002000F070FC204612
:10D1800010BC5DF814FB00005FDA010002E008C883
:10D19000121F08C1002AFAD170477047002001E031
:10D1A00001C1121F002AFBD1704700002DE9FF5F6B
:10D1B00082B00021DDE90430020DDDF840B0034308
:10D1C00018D044F61050A2F2FF32424315141198C1
:10D1D00001281FD0A5EB0B00401C5FEA000A4FF0AE
:10D1E00000064E4FDFF83891B046504615D5CAF1CB
:10D1F000000413E0119801244AA3012801D16FEA29
:10D200000B010298119AC0E90031C0E9024206B050
:10D21000BDE8F09FCBF10000DFE704460021404A63
:10D22000491842EB0450CDE9001012E0E00707D0A6
:10D2300032463B4640464946FFF7D6F98046894686
:10D2400032463B4610461946FFF7CEF906460F46D2
:10D250006410002CEAD1DDE90401DDE90023BAF114
:10D26000000F06DAFFF7C0F942464B46FFF7BCF95C
:10D2700005E0FFF72BFA42464B46FFF727FA044634
:10D280000E460022284BFFF705FC03D84FF0FF3075
:10D29000014607E00022254B20463146FFF73AFBC6
:10D2A000FFF7DFFB102409E0002C0ADB0A22002331
:10D2B000FFF7A2FA039B30321A55641E50EA0102AE
:10D2C000F2D1641C039AC4F111031444119A012A87
:10D2D00003D0012208430DD10AE0084304D0002006
:10D2E0004FF0110B119072E7A3EB0B056D1E0DE0D3
:10D2F0005B4504DD4FF0000205F1010504E003DAAF
:10D300004FF00002A5F10105002AECD00298119916
:10D31000C0E90231C0E9004579E70000000014408F
:10D320000000F03F300000000000F0430000E03F4C
:10D330002DE9FF4F95B09B468946064600250FE232
:10D34000252877D100242746F84A0121059400E0DA
:10D35000044316F8013F203B01FA03F01042F7D1D5
:10D3600030782A2811D06FF02F033078A0F13002E6
:10D37000092A16D8059A44F0020402EB820203EB54
:10D3800042021044761C0590EFE759F8042B0592F1
:10D39000002A03DA504244F40054059044F0020499
:10D3A000761C30782E2816D116F8010F44F00404AC
:10D3B0002A280DD06FF02F023078A0F13003092B0E
:10D3C00009D807EB870302EB4303C718761CF3E782
:10D3D00059F8047B761C30786C280FD006DC4C287A
:10D3E00017D068280DD06A2814D104E0742810D012
:10D3F0007A280FD10DE044F400140AE044F48014BC
:10D4000001E044F440147278824202D104F58014A1
:10D41000761C761C307866280BD013DC582877D021
:10D4200009DC002875D04528F6D04628F4D04728D6
:10D430001AD19DE118E0632835D0642879D0652899
:10D4400012D195E1702873D008DC6728F1D06928E3
:10D450006FD06E280DD06F2806D1B5E073282CD080
:10D46000752875D0782874D05A46179990476D1C46
:10D4700075E1C4F30250022809D003280DD0D9F871
:10D48000001004280DD00D6009F1040967E1D9F8F6
:10D490000010EA17C1E90052F6E7D9F800100D8034
:10D4A000F2E70D70F0E719F8041B8DF8001000206A
:10D4B0008DF80100EA46012003E059F804AB4FF073
:10D4C000FF3061074FF0000102D40DE008F10101C7
:10D4D0008846B9420FDA8045F8DB1AF808100029AF
:10D4E000F4D108E008F1010188468142FADB1AF81C
:10D4F00008100029F6D105985B46A0EB08072146E5
:10D500003846179A00F094FA284400EB080507E023
:10D510004DE029E10DE01AF8010B5A4617999047A2
:10D52000B8F10108F7D25B4621463846179A13E155
:10D5300042E00A220092C4F302524FF0000A022A8B
:10D5400008D059F804CB032A4FEAEC710AD00DE059
:10D5500029E02AE009F1070121F00702F2E802C1FF
:10D56000914609E00FFA8CFC4FEAEC71042A03D1D2
:10D570004FFA8CFC4FEAEC71002907DA0A460021C9
:10D58000DCF1000C61EB02012D2202E0220504D542
:10D590002B228DF80420012203E0E20701D0202293
:10D5A000F7E7904659E00A2102E010220DE0102131
:10D5B0004FF0000A00910BE010224FF0000A44F0F7
:10D5C00004040827009203E008224FF0000A0092AA
:10D5D000C4F30252022A05D059F804CB0021032AD1
:10D5E00008D009E009F1070121F00702F2E802C1C1
:10D5F000914605E01FFA8CFC042A01D10CF0FF0CC7
:10D600004FF00008220728D5702806D0009B83F031
:10D61000100353EA0A0305D00EE040228DF80420DF
:10D62000012208E05CEA010206D030228DF80420D5
:10D630008DF8050002229046009B83F0080353EA10
:10D640000A030AD15CEA010201D1620705D5302242
:10D650008DF804204FF001087F1E582804D034A014
:10D6600003900EA802900DE036A0F9E753466046FD
:10D67000009AFFF7C1F884460398825C0298401E26
:10D68000029002705CEA0100F0D1029806A9081A23
:10D6900000F1200A600702D524F4803400E001275D
:10D6A000574502DDA7EB0A0000E0002000EB0A016D
:10D6B000009005984144401A0590E00306D45B466B
:10D6C0002146179A059800F0B3F90544002706E0B3
:10D6D00001A85A46C05D179990476D1C7F1C4745AD
:10D6E000F6DBE0030CD55B462146179A059800F05F
:10D6F0009FF9054404E030205A46179990476D1C65
:10D700000099481E00900029F5DC08E00298029973
:10D710005A460078491C0291179990476D1CBAF13E
:10D720000001AAF1010AF1DC65E10000092801000D
:10D730003031323334353637383961626364656687
:10D740000000000030313233343536373839414249
:10D75000434445460000000000F058F90544761C9B
:10D76000307800287FF4ECAD19B02846BDE8F08F82
:10D77000620700D4062709F1070222F0070CFCE833
:10D780000223E14603F000485FEA080C02D00FF2E2
:10D79000702C0DE05FEA045C02D50FF2682C07E004
:10D7A0005FEAC47C02D00FF2602C01E0AFF2700C93
:10D7B0004FF0FF3823F00043CDF850C065280CD05F
:10D7C00006DC452809D046281DD047283DD13DE03C
:10D7D000662818D067287ED138E00021112F01DBA0
:10D7E000112000E0781CCDE9000106A90EA8FFF782
:10D7F000DDFCDDE90F010E9A03910021009207F193
:10D80000010A04914DE04FF000400097CDE901106E
:10D8100006A90EA8FFF7CAFCDDE90F0203920E9BD2
:10D8200011990022DDF80CA00093049211B9791C23
:10D8300000EB010AB7EB0A0004D4C0F1FF3007F196
:10D84000010A0490AAEB0700019044E0012F00DADE
:10D8500001270021112F01DD112000E03846CDE91C
:10D86000000106A90EA8FFF7A1FCDDE90F010E9A41
:10D870000391002104910092BA4621070CD4039928
:10D88000514500DA8A46BAF1010F05DD009AAAF186
:10D890000101515C302908D0B84202DA10F1040FBE
:10D8A00006DA0121CDE9011015E0AAF10101E9E74D
:10D8B000002805DC049901440491AAEB000102E070
:10D8C000411C514500DD8A460499401A401C0190D4
:10D8D0004FF000400290200704D40198504501DB2E
:10D8E000CDF8048000208DF84F0002980DF14F070D
:10D8F000B0F1004F25D02B200E9002984FF0020877
:10D9000000280CDA404202902D200E9007E00A21F8
:10D910000298FEF75BFF3031029007F8011DB8F165
:10D920000001A8F10108F2DC02980028EFD1791E6D
:10D930000E980870307800F0200040F0450007F89D
:10D94000020D12A8C01B00F107081498007800B15E
:10D95000012000EB0A01019801EBE07105984144B8
:10D96000401A401E0590E00306D45B462146179AF4
:10D97000059800F05DF805441498007818B15A46EF
:10D98000179990476D1CE00324D55B462146179AF2
:10D99000059800F04DF805441CE00498002807DBCA
:10D9A000DDE90301884203DD0098405C179901E03E
:10D9B000179930205A469047049805F10105401CFC
:10D9C00004900198401E019004D12E205A461799C8
:10D9D00090476D1CBAF10001AAF1010ADDDC05E0F7
:10D9E00017F8010B5A46179990476D1CB8F10001C2
:10D9F000A8F10108F4DC5B462146179A0598ABE6CE
:10DA00002D0000002B000000200000002DE9F04157
:10DA1000044600251E461746880404D405E039460E
:10DA20002020B0476D1C641EF9D52846BDE8F08162
:10DA30002DE9F041044600251E469046C80301D555
:10DA4000302700E02027880404D505E04146384609
:10DA5000B0476D1C641EF9D52846BDE8F0810A6800
:10DA6000531C0B601070704770472DE9FC5F044633
:10DA700000201688154610800F46626B80464FF0D6
:10DA8000030B11214FF00209B2B11278032E01D21B
:10DA90000C200FE087F800902888401C80B2288076
:10DAA00039542888401C80B228803A542888401C69
:10DAB0002880002000287ED1226B4FF00C0AF2B1A2
:10DAC000288800F11203B34201D9504615E03954B9
:10DAD00028881021401C80B2288039542888401C96
:10DAE00028800F202B88115C401EF954298840B2F1
:10DAF000491C29800028F5DA404600285BD194F8BB
:10DB00002EC0BCF1000F07D033462A463946604686
:10DB100002F012F900284ED194F82D1031B132469E
:10DB20002946384600F020FE002844D1A17801B3F0
:10DB30002888001DB04201D9504618E0684679DFB8
:10DB4000A8B92A8807F802B028881922401C80B298
:10DB500028803A542888401C80B22880C119BDF81A
:10DB6000000004F0EBFD2988084428804046002886
:10DB700021D1E178D1B1288894F90310C21CB242B6
:10DB800001D90C2010E007F8009028880122401CE1
:10DB900080B228803A542888401C80B228803954AA
:10DBA0002888401C28800020002876D16168E1B1D7
:10DBB00091F9001000E070E02888C21CB24201D93F
:10DBC0000C2010E007F8009028880A22401C80B240
:10DBD00028803A542888401C80B2288039542888EC
:10DBE000401C28800020002857D1218951B1CDE95F
:10DBF00000563B460622022104F1080004F079FE9B
:10DC000000284AD1218A51B1CDE900563B4607226E
:10DC1000032104F1100004F06CFE00283DD1218B9B
:10DC200051B1CDE900563B461522142104F11800EC
:10DC300004F05FFE002830D1D4F820C0BCF1000F02
:10DC400007D033462A463946604601F0F9F90028E4
:10DC500023D1D4F824C0BCF1000F07D033462A46A4
:10DC60003946604602F0ECFA002816D194F82C10E0
:10DC700039B133462A463946204603F035FE00289E
:10DC80000BD12178002908D002B033462A46394604
:10DC90002046BDE8F05F02F029BBBDE8FC9F000014
:10DCA000064800684FF40041044A8143121D116088
:10DCB000111D00F40040086070470000040500508A
:10DCC00070B50024064D06E06868012110F83400A4
:10DCD00002F084FB641C28788442F5D3002070BDD8
:10DCE00040220020F8B516460C460546052A01D20A
:10DCF0000720F8BD02F054FC18B902F027FC0028F8
:10DD0000F7D11048002145600470C0E902610E4E51
:10DD100001610DE005EBC4017068009088788DF812
:10DD200001000878094A694602F0AAFB0028E0D100
:10DD3000641EE4B2EED2BDE8F840054A0021024874
:10DD400000F04EB8402200200C35020065F60100BC
:10DD5000B9F20100BFF34F8F05480168054A01F48D
:10DD6000E06111430160BFF34F8F00BFFDE700008A
:10DD70000CED00E00400FA050EB500210091CDE99C
:10DD800001106A4644F20100FFF7E4FF0EBD10B532
:10DD90008268C368934203D001F01CFC002010BDD0
:10DDA000052010BD29B112B1531E134203D0092022
:10DDB00070470E2070470160838000218160C16040
:10DDC0000846704710B58268C3689A1A83889A42D9
:10DDD00003D801F009FC002010BD042010BD000094
:10DDE000074B9B6823B12AB120B10068037C1BB1AB
:10DDF0000820704707207047417442610020704737
:10DE0000542200202DE9F0478046994614460D46DD
:10DE1000900735D11C4F00268CB303F057FC03202C
:10DE2000C7F81490387022460021BC6005EB45030A
:10DE3000183402EBC100491C0670467085704460BE
:10DE400004EBC3040329F4DBFE607E70BE70142073
:10DE5000FEF746FF06211420FEF763FF1420FEF7AD
:10DE60004AFF0A49C1F8008006211120FEF759FF38
:10DE70000648001F006838610020BDE8F08701E017
:10DE80000720FAE7BE60FBE7542200200815014096
:10DE90002DE9F843DFF870900D461746D9F80810C1
:10DEA000044651B34CB3052D02D20720BDE8F883D8
:10DEB000606910B3607C012821D0002604F0E6FCE4
:10DEC000D9F80810804601EBC800694604F0FDFC53
:10DED000B8B1012100F8041B0C4910C0096880E8A2
:10DEE000E200D9F808109DF8000001EBC801487065
:10DEF0001420FEF70BFF0020D8E70820D6E72E46B7
:10DF0000DCE70420D2E70000542200200415014081
:10DF1000F8B5124E0446B168E1B1DCB16069C8B130
:10DF20000027277404F0B2FC0546B068694600EB90
:10DF3000C50004F0CAFC78B1022101704460B068E9
:10DF400000EBC5019DF8000048701420FEF7DEFECE
:10DF50003846F8BD0820F8BD0420F8BD5422002042
:10DF600010B5044609488268C1688088891A8142D0
:10DF700006D10121064802F045FF08B1052010BD79
:10DF80002146BDE810400148FFF701BF802800206E
:10DF9000DD20002070B50446234888B01E460D00E1
:10DFA000426035D0A888296882B22048FFF7FAFE7F
:10DFB00000282ED1A889A96882B21C481030FFF72A
:10DFC000F1FE002825D1202219496846FEF7E8FA1B
:10DFD000A0680690207900B101208DF814008DF81A
:10DFE0001C60607900B10E208DF81500E078029079
:10DFF000A078039020780190607800900D496846E1
:10E0000002F0B6FE002804D19DF81D0018B104E00E
:10E01000072008B070BD02F037FF03480121401C03
:10E0200002F0F0FEF5E70000DC2000208028002050
:10E03000C42C0200B524020010B501460948FFF7C0
:10E04000C1FE04000CD103F047F848B90649054861
:10E05000FFF79DFE20B90121034802F0B7FF0446F7
:10E06000204610BD90280020DC2000202DE9F04142
:10E0700004460078184F012606FA00F03860206840
:10E0800003F06EF80021606803F061F81348144D46
:10E09000007FA069C5F82405607D217D0843C5F88F
:10E0A0006C05D4E90001C5F80C05C5F81415207DF0
:10E0B00001280FD10021A06803F049F8207B864099
:10E0C0003E60E06803F04CF8D4E90201C5F8081599
:10E0D000C5F81005BDE8F08108050050F8280020BB
:10E0E0000020004070B586B01E480025ADF81450E1
:10E0F0004FF4007606600A2002F046F9002405A9D4
:10E10000012002F0E5FBBDF91400641CE4B20544F3
:10E11000642CF4D31348001D066014216846FEF7F2
:10E1200058FA042000F0CAFE2846FEF73EFB9FED99
:10E130000E1B53EC112BFEF757FA9FED0D1B53EC02
:10E14000112BFEF7C3FA41EC100B0BA153EC102B73
:10E150006846FFF707F86A460421002004F016FD20
:10E1600006B070BD0805005000000000000022400D
:10E17000000000000040EF40426174746572792035
:10E18000766F6C743A25312E3266560010B504F065
:10E19000DBFA04F01DFB044C00221046A17804F0C9
:10E1A00005FD0120207010BD502A002030B585B03B
:10E1B00014216846FEF70DFA2F4C4FF47A7521466C
:10E1C00022798868097B153A052A32D2DFE802F005
:10E1D00003141B230C0000F57A70A0F52851A060F1
:10E1E000F83929D1A56027E0B0F57A70A06023D175
:10E1F00042F21070A0601FE00A3911F0FF00207396
:10E200001AD1642005E00A31C8B220736E2813D1F8
:10E210000A20207310E004F0DBFA0022A1781046F7
:10E2200004F0C4FC012020703220A560207304F0AB
:10E2300097FA207918281DD0042000F03FFE062010
:10E2400000F03CFE0DA16846A268FEF78BFF6A460F
:10E250000421002004F09AFC227B0BA16846FEF703
:10E2600081FF6A460621002004F090FC217BA06813
:10E2700003F096FB05B030BD502A00204672657150
:10E280003A2564487A000000447574793A2564257B
:10E290000000000070B50D4692B01F21ADF840108F
:10E2A000ADF84410002488B1C178490701D4072291
:10E2B00000E0002212B1104612B070BD10AA6946EB
:10E2C000FFF7D3FB0028F7D16E4602E00026ADF839
:10E2D00040406DB1E87800B107200028ECD111AAC8
:10E2E00008A92846FFF7C1FB0028E5D108AA02E0EB
:10E2F0000022ADF84440BDF84400C3B2BDF8400070
:10E30000C1B2304672DFD7E770B50D4604991646A4
:10E31000040040D0F6B3414800224271C0E9033105
:10E32000242231463E48FEF73BF900F0B7F83C495D
:10E330003431A1F1100001602031816038215C3856
:10E34000FEF747F93649207838390870A078887088
:10E35000E078C87060784870D4E90402C1E904022A
:10E36000D4E90202C1E90202D4E90602C1E90602C7
:10E37000606AD0B101F1AC0000F10C024862826029
:10E38000636A1B880380606A4B6A808898800020DB
:10E390004B6A07E0FFE70E2070BD666AB668365C20
:10E3A0001654401C9E888642F7D8A06AD8B11C4AF1
:10E3B000AC32A2F10C0082608862A36A9B888380E1
:10E3C000A06A8B6A0088188000208B6A04E0A66A25
:10E3D000B668365C1654401C9E888642F7D894F87E
:10E3E0002C0081F82C00206A48B10C4814300862D7
:10E3F000226A52884280206A0A6A00881080606817
:10E4000020B10648801D4860606848602946BDE824
:10E41000704003483838FFF73DBF0000A8200020B7
:10E420007827002010B501881B4C102918D0002235
:10E4300011291BD01B2918D1007A002815D1607929
:10E4400001281CD0022820D0032820D004280CD179
:10E450002271E1681046002907D0BDE81040084746
:10E46000817D012901D18088208110BD6270808862
:10E4700021898842F9D1012002E02169EBE70220DD
:10E4800000F014F80028F8D110BD0320F8E70320AD
:10E4900020710420F4E70000A82000200248002199
:10E4A0008161818381777047A82000202DE9F04F9A
:10E4B000744C87B00026607106A8069602F0BAFF79
:10E4C0000127082801D030B903E006A801F0B0F810
:10E4D00018B9069808B12770C0E0FFF7DFFF6A4D52
:10E4E000DFF8A0814FF0020A687808F118084FF0B1
:10E4F000030B10B16079012806D0A87858B1607973
:10E50000012801D002281FD1E16819B1E770082065
:10E51000884700E0E6706079012806D1687840B14C
:10E5200008F1010002F064FF18B16079022802D0FE
:10E530000AE084F805A0A87820B108F1010002F0F3
:10E5400057FF08B984F805B0287B4FF0040920B9BB
:10E550006079032801D184F80590287E20B960797C
:10E56000042801D166712671E16841B16079032800
:10E5700001D0042803D1287808B16078C0B1A67012
:10E5800018216846FEF725F88DF8006001968DF891
:10E5900008600396607901280ED0022816D03A4E02
:10E5A0002436A6F15C0703281DD004284CD13AE09C
:10E5B000A77007208847E3E7ADF81260CDF8048024
:10E5C0008DF80070ADF8106027713FE0CDF8048041
:10E5D0008DF800702889ADF81200A888ADF81000F9
:10E5E00084F804A032E0A88AADF81200288AADF8B9
:10E5F00010002548243004F041FA18B1287808B1F9
:10E60000607810B184F804B01EE01F488DF808A0AF
:10E61000039687F8039000213838FFF73BFE002867
:10E620001DD105202BE0A88BADF81000288CADF88B
:10E6300012001548243004F021FA18B1287808B1E6
:10E64000607878B184F80490607918B1684673DF17
:10E65000002804D1E16809B120798847002007B07B
:10E66000BDE8F08F08488DF808A0039687F803905E
:10E6700000213838FFF70EFE0028F0D10620207167
:10E68000E2E70000A82000207827002070B50646A9
:10E6900001461C220F48FDF783FF0F4C0025257013
:10E6A000306830B1016861604068A060201D7ADF89
:10E6B00002E00948001D7BDF00280AD14FF6FF70F9
:10E6C00060806570BDE87040044A00210448FFF78F
:10E6D00087BB70BD64280020C82000202D280200C0
:10E6E000B02C020070B51E4C018800261B4BE2893D
:10E6F000102915D01B4D11291CD0122929D05029C1
:10E7000017D130F8061F914213D14189022910D147
:10E71000007B10F0010F11D0BDE8704000F0D8BCB4
:10E72000818859808169D960C06918615E70002A4A
:10E73000F2D070BD4FF6FF7058805E702868FFF70A
:10E74000E7FB0028F5D0A1690029F2D0BDE87040B0
:10E7500008478168D960C0681861DDE7C8200020DB
:10E7600064280020B02C02007CB5054608880C46C1
:10E770000930904201D90C207CBD684671DF002829
:10E78000FAD121880820685420881B21401C80B2BF
:10E79000208029542088401C80B220802844DDF845
:10E7A00001100160BDF8051081802088801D80B2B5
:10E7B00020809DF8001001B1012129542088401CBF
:10E7C000208000207CBD000010B50446FFF78AFFC2
:10E7D0002146074800F040F8204602F0C9FD2046D7
:10E7E000FFF720FE2046BDE8104000F0E1B8000031
:10E7F000B426002030B5040016480D4685B00FC879
:10E800008DE80F0023D015B34FF6FF70A082286863
:10E81000A0610020A0752146684663DF002814D15E
:10E8200020788DF812000120ADF81000A21C04A978
:10E83000A0DF002809D12946204602F07DFF0028EC
:10E8400003D12946204603F0A5FD05B030BD0E20BA
:10E85000FBE70000B42C020000281ED000291CD0C9
:10E860000A88102A14D0112A14D0502A15D131F850
:10E87000062F038A9A4202D14B89022B0ED083883D
:10E880009A420AD18369002B07D04A890C31184774
:10E89000898801E04FF6FF7181827047097B11F092
:10E8A000010100D001218175704707B584B068B1BE
:10E8B000828AA2F57F43FF3B0AD0827D42B1BDF838
:10E8C0001820142A06D9072007B000BD0E20FBE748
:10E8D0000820F9E7002200920192029203928289B5
:10E8E000039106A90291ADF8002001218DF80210D4
:10E8F000808A6946A6DFE7E700B5154887B00023A0
:10E90000006805904822134905A803F057FA08B19A
:10E91000FFF732FA6A460121002003F039FA08B104
:10E92000FFF72AFA0C4802F091FF08B1FFF724FA2A
:10E93000684603F023FA08B1FFF71EFA074803F010
:10E9400013FA002801D0FFF717FA07B000BD000046
:10E95000582C020090220020E81F0020C9E7010087
:10E960001CB50C004FF0000017D0694600F088F885
:10E9700088B901A9012000F083F860B99DF804105E
:10E98000002009B1022103E09DF8001011B10B2114
:10E99000217000E02070002807D10449096800298F
:10E9A00003D1BDE81C4000F013BA1CBDA420002018
:10E9B000054A01881068102904D0112901D1401E90
:10E9C00010607047401CFBE7A42000202DE9F047B1
:10E9D000064600252C46DFF89C80274802E0641C90
:10E9E000052C3AD250F82420B242F8D1052C34D26A
:10E9F000214BDFF88090214F0C3B09F11409D9B16C
:10EA0000012902D0022928D123E004EB44003D5C17
:10EA10000744787860B1D8F80400164A00EB80000B
:10EA20004100521C9868FFF733FA08B988F8016072
:10EA3000B97809F8041010E09868FFF769FA04EB58
:10EA40004400384419F804108078814205D1054605
:10EA500003E004EB440038444578002D07D0D8F893
:10EA60001010002903D02846BDE8F0470847BDE84C
:10EA7000F087000088200020742C0200102700205E
:10EA800005280CD2074A1268074B13F820300120E2
:10EA90009840904300D0012008700020704700206B
:10EAA000FAE7000010050050742C020001F0D0B805
:10EAB00030B503460020052B0DD2012A02D10129D1
:10EAC0000BD000220A4D03EB4304631969B10129FD
:10EAD00007D0022907D0072030BD03F10D02D2B2C2
:10EAE000F0E72A5530BD5A7030BD9A7030BD000035
:10EAF00010270020044902460020097AC90702D0E5
:10EB0000104600F055B870478820002070B50E46BA
:10EB10002149054600200A61C1E90165A9071BD505
:10EB20000024012211462046FFF7C2FF641C052C79
:10EB300002D20028F5D00FE070B9720805211748FD
:10EB4000FFF7D0F840B9FFF7BBF828B91348144ACB
:10EB500000211838FFF744F9E9070AD0114A4FF4A9
:10EB6000404111600F4B00221B1D1A600D4A1032EC
:10EB7000116000280FD109480B4A00212038FFF707
:10EB80002FF9002807D1BDE8704004480121074A49
:10EB90001C38FFF725B970BD88200020882C0200A2
:10EBA000C9ED0100080500508DFD0100A1DC010048
:10EBB0002DE9FC5F824F4FF4004BDFF800A2F968AB
:10EBC00001912BEA01027968044601EB81030020E0
:10EBD0000AF1040500932E1D7A4B4FF4404E4FF47A
:10EBE000804C8146182C15D2DFE804F00C1616393B
:10EBF0004D5F6E81838C838CE49E9E9E9E9EC7CDCE
:10EC0000D5DCE4E4019A2EEA02012960C6F80090FE
:10EC100087F80090BDE8FC9F2A604846C6F800903F
:10EC2000DAF8002082F4404252040AD5C5F800C048
:10EC30003060022C02D14FF4E16009E04FF47A60B9
:10EC400006E0C6F800C02860022C3BD04FF4C87024
:10EC50006422B0FBF2F041433C7000225CE02A6089
:10EC60004846C6F80090DAF8002082F44042520488
:10EC700005D5C5F800C030604FF44870E8E7C6F825
:10EC800000C028601EE02A604846C6F80090DAF806
:10EC9000002082F44042520403D5C5F800C0306021
:10ECA000CCE7C6F800C02860D0E72A604846C6F81E
:10ECB0000090DAF8002082F440425204DFD5C5F813
:10ECC00000C03060C820C3E72A604846C6F80090FC
:10ECD000DAF8002082F44042520403D5C5F800C09F
:10ECE000306002E0C6F800C028603C7013E02A6083
:10ECF0004BE0DAF800002BEA00022A6000F4004042
:10ED0000306008E0DAF800002BEA0001296000F426
:10ED10000040306000990022186802B0BDE8F05F42
:10ED2000FFF7B6B829602CE098465868FFF7F0F86E
:10ED3000D4F1110100D040B1B98901F440412960FA
:10ED4000C6F80090C7F80C9064E7C7F80CB001292A
:10ED50000CD9C82011FB00F16420B1FBF0F17868F8
:10ED600000224143D8F80400FFF792F8B98901F472
:10ED700040413160C5F800904CE7C5F800E0C6F8A6
:10ED800000903C7046E7C5F800B04946C6F80090D0
:10ED9000C6F800C0C6E7C5F800C04946C6F80090EE
:10EDA0005A4605E04946C5F80090C6F800907246FC
:10EDB0003260B7E7C6F800E04946B3E70405005003
:10EDC00088200020682C020000780221FFF7FEBD99
:10EDD00010B5152201210020FFF76AFE08B10728AF
:10EDE00020D1012116220846FFF762FE08B107284C
:10EDF00018D1172201210220FFF75AFE08B1072877
:10EE000010D1182201210320FFF752FE08B1072874
:10EE100008D1192201210420FFF74AFE08B1072872
:10EE200000D1002010BD000005494FF0FF32082836
:10EE300041F8202002D3084480F8482070470000A1
:10EE4000A0280020F0B506464FF0FF30002A02D07F
:10EE50004FF0000301E04FF0080302D04FF0080527
:10EE600001E04FF00C050B4C04E054F823707F1CBC
:10EE700003D05B1CAB42F8D3F0BDA51958B285F89E
:10EE8000300044F82310002AF6D1E11881F84860D8
:10EE9000F0BD0000A02800200249084490F930008D
:10EEA00070470000A028002010B50024641CE0B2C8
:10EEB00000F004F8E4B2072CF8D310BD10B540F010
:10EEC000B00003F095FE0F2003F092FE102003F037
:10EED0008FFE0024002003F0A5FE641CE4B2802C09
:10EEE000F8D310BD70B5B02003F082FE002003F00F
:10EEF0007FFE102003F07CFE0024B1254FF48066D5
:10EF0000002003F08FFEE04340060AD105EBD41049
:10EF1000C0B203F06DFE002003F06AFE102003F083
:10EF200067FE641CA4B2B442EAD370BD2DE9F05F61
:10EF30002649C868F0B3DFF898B007688946DBF85F
:10EF400000400E69A01B20F07F45C878ED1CB0B9C9
:10EF5000DFF880804FF48030C8F84403C8F8040319
:10EF60001120FDF7BDFE1120FDF7C5FE4FF0010A8F
:10EF7000C8F800A02F20FDF7C5FA89F803A0BD420C
:10EF800000D23D46124AA8193C3220F07F40106062
:10EF9000DBF800105B46091B21F07F41001B20F0CD
:10EFA0007F40C91C81420FD9186810602F20FDF7DF
:10EFB000A9FA00E004E0BDE8F05F1120FDF7A6BE6D
:10EFC000BDE8F05F02F082BBBDE8F09F5422002054
:10EFD0000415014000100140FFB5002201246D46D8
:10EFE0008B5CFF2B13D0DE0923F0800345F8223021
:10EFF00004FA03F601D0114F01E0104F3F1D3E60AF
:10F0000003269B0003F1A043C3F8006703E04FF021
:10F01000FF3345F82230521CD2B2042AE0D30168F3
:10F020002A46002001EB800452F82030C4F86035F5
:10F03000401CC0B20428F5D3FFBD000008050050F5
:10F040002DE9F0410D4611880646881D1446984268
:10F0500002D90C20BDE8F0813088062814D34FF483
:10F0600048674FF6FF73B84201D998420CD17288B5
:10F07000062A09D3BA4201D99A4205D1984205D04D
:10F080009A4203D0904201D9072000E000200028D6
:10F09000E0D10520685420881221401C80B22080D5
:10F0A00029542088401C80B220804119308803F008
:10F0B00045FB2188084480B220804119708803F004
:10F0C0003DFB2188084420800020C3E7FEF754BEA2
:10F0D000F8B5134800F0AEFD114D0026114C0C3D63
:10F0E00030B16169B9B101208DF80000684611E0C6
:10F0F000287820B1616971B18DF80060F6E7687811
:10F1000058B1A168084800220068FEF7C1FE10B19E
:10F11000A16901B188472E70F8BD6168F2E700006F
:10F12000D420002064280020B02C02002DE9F041FA
:10F13000374D0446B1FBF5F005FB10103C22B0FB47
:10F14000F2F302FB130323704FF46163B0FBF3F699
:10F1500003FB1606B6FBF2F2B0FBF3F06270A07090
:10F16000B1FBF5F085B24FF4B7724FF4FA60531E5D
:10F17000E0804FF4C877642610E0B0FBF7F107FB9E
:10F18000110119B3B0FBF6F106FB110109B18107BA
:10F190001CD01946691A401C8DB2E08080B2B0FBC9
:10F1A000F7F107FB110199B1B0FBF6F106FB110174
:10F1B00009B181070CD01946A942DED9002121717D
:10F1C000E288B2FBF7F307FB13221AE01146E1E7EE
:10F1D0001146F1E7B0FBF6F206FB12020AB1800716
:10F1E00011D0002000F02EFA85420ED3281A85B2E5
:10F1F0002079401CC1B22171E088B0FBF7F207FB17
:10F200001202002AE6D10120ECE7E570BDE8F081AA
:10F21000805101002DE9F047054641788078EC786F
:10F22000C0EB001001EB80002978C0EB001001EB6F
:10F23000800995F904704FF4C8764FF0640811E026
:10F24000B0FBF6F106FB1101C1B1B0FBF8F208FB0F
:10F25000120109B1800711D00020F9B200F0F2F9D3
:10F26000204484B27F1E7FB2E888002FE8DA4FF492
:10F27000B7724146531E4FF4FA6510E00120ECE7E7
:10F28000B0FBF6F706FB1707A7B1B0FBF1F701FBE0
:10F2900017070FB187070DD01F463C44A4B2401E8C
:10F2A00080B2A842ECD240F2A320444309EBC41040
:10F2B000BDE8F0871746F0E72DE9F041002501266B
:10F2C000144F22E078683A6900EBC504207806FA0A
:10F2D00000F1114217D08A433A6101F02DF902463C
:10F2E0002078FB6806FA00F1194002FA00F399420F
:10F2F00009D16178012901D0012100E000215140AC
:10F30000626802B190476D1CEDB238788542D9D35E
:10F31000BDE8F0814022002070B5FFF7E3FD114DFC
:10F32000E86840F48070E86000F0A6F80121A97058
:10F33000697000222970104603F038FC0A4E002440
:10F34000E87820440A2808D200EB800006EB40024F
:10F35000601CC1B2012003F019FC641CE4B2072C4C
:10F36000EED370BD502A0020402D02002DE9FF474A
:10F37000002402A802F0BCF8DDE90270814602A870
:10F3800002F0E0F8DDE90260804602F005F9222192
:10F3900090FBF1F000F26D100FFA80FA00943AB28F
:10F3A00032A168460194FDF7DDFEC0B26D460DF84E
:10F3B00000402A460121002003F0E8FB00943A14A3
:10F3C0002AA168460194FDF7CDFEC0B26A462C54CE
:10F3D0000121082003F0DAFB00940FFA89F223A13F
:10F3E00068460194FDF7BEFEC0B26A462C54022165
:10F3F000002003F0CBFB009432B21CA168460194BC
:10F40000FDF7B0FEC0B26A462C540321002003F081
:10F41000BDFB0094321415A168460194FDF7A2FECD
:10F42000C0B26A462C540321082003F0AFFB0094BD
:10F430000FFA88F20DA168460194FDF793FEC0B261
:10F440006A462C540421002003F0A0FB009452468D
:10F4500008A168460194FDF785FEC0B26A462C54A7
:10F460000521002003F092FBBDE8FF8725303564BD
:10F4700000000000253064001CB5002000900190C1
:10F48000434801686846FFF751FE9DF804000A24CE
:10F49000401CB0FBF4F03030C2B20021084603F04B
:10F4A0004FFB9DF80400401CB0FBF4F104FB11027B
:10F4B00000210120303203F043FB2E2200210220E4
:10F4C00003F03EFB9DF803000021401CB0FBF4F06C
:10F4D0003030C2B2032003F033FB9DF80300401C20
:10F4E000B0FBF4F104FB110200210420303203F0E0
:10F4F00027FB20220021052003F022FB9DF80200BB
:10F500000021B0FBF4F03030C2B2062003F018FB4B
:10F510009DF80200B0FBF4F104FB1102002107206A
:10F52000303203F00DFB3A220021082003F008FBE3
:10F530009DF801000021B0FBF4F03030C2B2092088
:10F5400003F0FEFA9DF80100B0FBF4F104FB110298
:10F5500000210A20303203F0F3FA3A2200210B2076
:10F5600003F0EEFA9DF800000021B0FBF4F030301B
:10F57000C2B20C2003F0E4FA9DF80000B0FBF4F1F5
:10F5800004FB110200210D20303203F0D9FA1CBD1A
:10F59000342200200E4A10B5517894780023A142FD
:10F5A00012D0491CC9B25170022900D153700849C8
:10F5B0005378183151F8231001601069084420F085
:10F5C0007F401061012010BD0360002010BD0000CD
:10F5D00054220020826883881A4003689A5C0A706B
:10F5E0008168491C81607047C26883881A4003683B
:10F5F0009954C168491CC1607047000010B503F000
:10F60000E7F8064C00221046A17803F0CFFA01205B
:10F610002070BDE8104003F0AFB80000502A002071
:10F6200010B50446C0B2FEF707FD204610BD00002D
:10F6300020B10349496D01600020704703207047E5
:10F64000382B002002461F20012907D0062901D9A6
:10F65000491EC9B2C90700D01E2070471C32D0B263
:10F66000704700002DE9F041124E07460124BC40CE
:10F670003068FEF74DFC00280DD10F4D286920425F
:10F6800007D1384600F058FF0028E86805D020432D
:10F6900004E0A0432861BDE8F081A043E860286948
:10F6A00020432861A9683068BDE8F0410022FEF7D8
:10F6B000EFBB00000C350200402200207CB505465F
:10F6C0001049002001F08AF80F4CD4E90401CDE97B
:10F6D00000018DF806506946284601F037F80B49BD
:10F6E0000320C1F800070A4A0121201DFEF778FB1C
:10F6F00000224FF480316068FEF7CAFB0020FEF75D
:10F70000F1FC7CBD69DA0100042D020024000050E8
:10F71000E5E001000EB50A4807C88DE807001D2086
:10F720008DF80000FF208DF801008DF802008DF8A3
:10F73000030000226946034800F03CFF0EBD0000B4
:10F74000543402002422002010B500F017F90449B7
:10F750000320C1F80007BDE810400A2001F03ABDBF
:10F76000280000507CB505460D49002001F036F810
:10F770000C4CD4E90201CDE900018DF80650694630
:10F78000284600F0E3FF084A01212046FEF728FB47
:10F79000002240F6CD412068FEF77AFB7CBD0000D8
:10F7A00069DA0100042D0200C5FD010010B500F06A
:10F7B00027F800216B2003F0B1F90721192003F08D
:10F7C000ADF906211A2003F0A9F901211C2003F04C
:10F7D000A5F918211B2003F0A1F9074A01210748C8
:10F7E000FEF7FEFA0548002240F6CD410068BDE86C
:10F7F0001040FEF74DBB0000B71502002C2D020093
:10F800001FB50A4800231A46006903901020009093
:10F81000112001904FF0CC7002906946044801F02D
:10F8200007FA034801F0F4F91FBD00002C2D020077
:10F830001421002010B500F05EF8032001F0D2FC86
:10F840000A2000F0A1FD062001F0BCFC0A2000F017
:10F850009BFD062001F0C6FCAE2003F0C9F9D520BF
:10F8600003F0C6F9802003F0C3F9A82003F0C0F923
:10F870003F2003F0BDF9D32003F0BAF9002003F0D4
:10F88000B7F9402003F0B4F9002003F0B1F91020DB
:10F8900003F0AEF9A12003F0ABF9C82003F0A8F9FA
:10F8A000DA2003F0A5F9122003F0A2F9812003F079
:10F8B0009FF9CF2003F09CF9D92003F099F9222079
:10F8C00003F096F9DB2003F093F9002003F090F9A0
:10F8D000A42003F08DF9A62003F08AF98D2003F00F
:10F8E00087F9142003F084F9AF2003F081F9BDE813
:10F8F0001040FFF7F7BA10B500F060F8032001F0F0
:10F9000039FC042001F036FCBDE81040062001F06F
:10F9100031BC000010B5174C88B094E807008DE8A2
:10F9200007001B208DF800001A208DF801001C2014
:10F930008DF80200FF208DF8030002208DF80A00E8
:10F94000002269460C481C3C00F034FE283494E840
:10F950000F0003AC84E80F00074964200968C1F870
:10F9600008050223012203A9034800F089FE08B01C
:10F9700010BD000070340200242200201FB50D4885
:10F98000D0E90012C068CDE9001203900B208DF879
:10F9900000000C208DF801000D208DF80200C0073A
:10F9A000029000208DF80D0002466946024801F0E1
:10F9B00023F81FBD1C2D02000C2100201FB50D488F
:10F9C000D0E90812C06ACDE9001203901E208DF81C
:10F9D00000001F208DF80100FF208DF80200C007F5
:10F9E000029000208DF80D0002466946024801F0A1
:10F9F00003F81FBD24340200182200201CB500208B
:10FA00004FF4FC610190ADF8061004218DF804104C
:10FA1000009015218DF803100C218DF802108DF83F
:10FA200001008DF800006846FFF7F4FB0749084A1B
:10FA3000086001210748FEF7D3F9064800224FF479
:10FA400000410068FEF724FA1CBD000034220020AB
:10FA50000D280200BC340200F8B51A4E3078002898
:10FA60002ED0306928B10025F06820B1002425B1DE
:10FA700010E00125F8E70124F9E7684652DF052880
:10FA800003D020B1FEF778F904E0012502E03169E6
:10FA90000098884784B97088ADF800006946B0685E
:10FAA00061DF052803D020B1FEF766F904E00124E8
:10FAB00002E0D6E902018847002DD8D0002CD6D02C
:10FAC000F8BD00007822002070B50C4605461021D4
:10FAD00001F0B7FB002650B14FF48871284601F0C1
:10FAE000ABFB20B1C5F810612168012088472021B7
:10FAF000284601F0A6FB50B14FF48A71284601F068
:10FB00009BFB20B1C5F81461216802208847802141
:10FB1000284601F096FB50B14FF48E71284601F053
:10FB20008BFB20B1C5F81C612168002088474FF489
:10FB30008271284601F080FB002808D0C5F80461D6
:10FB4000012020712168BDE870400320084770BD86
:10FB500070B500250C46C0F8085102F03BFA0028A9
:10FB60000BD1A07EFF2801D001F044FB6576257102
:10FB7000201D2168BDE87040084770BD7FB50C4668
:10FB8000054691F8211094F82000CDE9000104F118
:10FB90002602D11E2846E36902F0EDFA002823D19F
:10FBA00094F8230008BB207B022801D003281CD135
:10FBB0002269E169914218D16269E261E37B84F8CC
:10FBC0002030217E0328C1F3401184F8211006D093
:10FBD00004B029462046BDE8704002F07BBA00918F
:10FBE0002946204602F040FB7FBD04F10C0001AB2A
:10FBF00007C883E8070094F82300002168B1D5F80E
:10FC0000C404C5F8C404820701D5012002E04007FE
:10FC100005D502208DF8000001E08DF8001084F871
:10FC20002410207E4007DFD4D4E9002168469047A5
:10FC30007FBD0000054940880A88904204D3498866
:10FC4000884201D80120704700207047CC20002056
:10FC5000124A30B410711278114B002102EB4202AB
:10FC6000153803EB820205280DD2DFE800F003050A
:10FC700007090B00517806E0D17804E0117902E021
:10FC8000517900E0917801EB410003EB800080683E
:10FC9000002801D030BC004730BC7047502A0020FB
:10FCA0001C21002010B50420FFF708F9104C207922
:10FCB000153805281AD2DFE800F0030709100500FF
:10FCC0000CA204E00FA202E012A200E015A204219F
:10FCD000BDE81040002002F059BF02F079FD00227B
:10FCE000A178104602F062FF0120207010BD0000D4
:10FCF000502A00204B65792075702050726573730F
:10FD0000210000004B657920646F776E205072658A
:10FD1000737321004B6579206C65667420507265A1
:10FD2000737321004B657920726967687420507283
:10FD3000657373210000000030B51488E51C9D42F6
:10FD400001D90C2030BD02250D5513881C245B1CE5
:10FD50009BB21380CC5413885B1C9BB21380012888
:10FD600007D0022807D0032807D0042807D007208F
:10FD700030BD002004E0012002E0CD5401E003206A
:10FD8000C8541088401C1080002030BD0348017A00
:10FD9000C90702D00078FEF70BBF7047882000200B
:10FDA00010B502F015FD064C00221046A17802F0B5
:10FDB000FDFE01202070BDE8104002F0E3BC000011
:10FDC000502A002070B5002586B02E46ADF81050A0
:10FDD0002C4604A9042000F07BFDBDF91000641C32
:10FDE000E4B20544642CF4D30096019602960420F4
:10FDF0000396FFF763F8642095FBF0F205A16846CF
:10FE0000FDF7B0F96A460421002002F0BFFE06B0FB
:10FE100070BD0000252D346400000000F0B5284FAF
:10FE20004FF0000C3C78D7F80CE03EE0B86800EBEF
:10FE3000C403197836E001EB41025868491C00EB15
:10FE4000C2009A78C9B28A4200D100210278022AFF
:10FE500003D0032A26D1F86822E0FA6845681646DE
:10FE6000104603E0A84203D00246C069D0B1F9E7CA
:10FE7000C0B1824208D1F569FD602DB9114E01254E
:10FE8000B560C7F810C03D710568C069D06148B160
:10FE900002682A44026005E080F810C0C069F8607A
:10FEA0000028F9D158788842C5D1641EE4B2BDD289
:10FEB000F868704501D00120F0BD0020F0BD0000C1
:10FEC00054220020001001402DE9F04705462F483C
:10FED000002780460678D0F80C904BE0D8F8080050
:10FEE00000EBC60440E015B12846ED691EE020781D
:10FEF000616800EB4002401CC0B201EBC2012070FF
:10FF0000A278904200D127700A784868012A2DD142
:10FF1000027C5ABB8A684260CA6882600A69C26011
:10FF20004969816198F8041001B147604168D8F8C7
:10FF30001020DFF85CC08B1A23F07F43634502D2A8
:10FF40008168194406E0511A826821F07F418A4293
:10FF500002D9511A016000E0076047600121876003
:10FF60000174C76101F0D6FF002DBCD12078617803
:10FF70008842B8D1761EF6B2B0D2D8F80C104945F6
:10FF800002D00120BDE8F0870020FBE754220020CA
:10FF9000FFFF7F000023A8B0604A05211846FDF747
:10FFA00031FF08B1FDF7E8FE5D4804AB07C883E800
:10FFB00007005C4800905C494FF48070CDE9010176
:10FFC00003900623594A694604A8FDF7E3FF08B1E8
:10FFD000FDF7D2FE564A40F6CD410320FEF796FDCE
:10FFE00008B1FDF7C9FE69460020FEF7B9FC08B16B
:10FFF000FDF7C2FE9DF8000002287CD000208DF89D
:020000040002F8
:100000009800FEF779FC9DF808004AA120F00F0047
:10001000401C20F0F00010308DF808000B2202A8E0
:100020007CDF08B1FDF7A8FE002400941020ADF895
:1000300000003C200194ADF80200ADF804404FF4FC
:10004000C870ADF8060068467ADF08B1FDF794FE87
:100050003B48009069463B48FEF7CCFB08B1FDF7F2
:100060008BFE382101A8FCF7B4FA02208DF80400B9
:100070008DF8064005208DF8070038210FA8FCF701
:10008000A8FA314801251490ADF84C5024211DA840
:10009000FCF79FFA40202190B42022908DF88050E8
:1000A0002A4B1DAA0FA9009401A8FEF72DF908B14B
:1000B000FDF762FE1C216846FCF78BFA4FF42030F6
:1000C000CDE900404FF47020029003208DF80C0021
:1000D0001F4805901F480690ADF80E408DF810405F
:1000E0006846FEF7D3FA08B1FDF746FEFFF7A2FB1C
:1000F000FFF784FC00E008E002F072FC1648FDF710
:1001000021F80320FEF7D2F902E0012077E748DF6B
:100110000028FCD0FDF730FEF9E70000EC240020B9
:100120005C2C0200EC220020EC2300205924020069
:10013000ADEA01004E6F726469635F55415254002D
:100140002B130200B426002084200020511302004B
:10015000D5130200CDF001001435020070B5154C26
:1001600001220020A17802F021FD60780125401CC9
:10017000C0B260700B2804D165700020E07002F0FE
:1001800027FB6078E178411A072907DCA078401C3A
:10019000C0B2A070082805D1A57003E0C01FE070B0
:1001A00002F016FBA178BDE870400022104602F074
:1001B000FDBC0000502A00200848007915380528A9
:1001C0000AD2DFE800F003090907050000F008B8CB
:1001D000FFF7C4BF01F03ABC70470000502A00206E
:1001E00010B5164C01220020A17802F0DFFCA078A7
:1001F000012808D16178012905D0E078401EE0701F
:1002000002F0E6FA06E0401E10F0FF00A07001D1F7
:100210000720A0706078401E10F0FF00607005D1CC
:100220000A2060700320E07002F0D2FAA178002268
:10023000BDE81040104602F0B9BC0000502A002072
:1002400070B505460E46808814461188021D0A4482
:10025000801C9A4201D8FE2801D90C2070BD401C98
:1002600070542088FF21401C80B2208031542088A7
:10027000401C80B220808119288802F05FFA218812
:10028000084480B22080AA8842B1A96841B13044B4
:10029000FCF786F92088A98808442080002070BDDA
:1002A000072070BD10B502F093FA064C00221046EC
:1002B000A17802F07BFC0120034920704006086011
:1002C00010BD0000502A00200C05005010B502F0AF
:1002D00071FA02F07DFA044C00221046A17802F077
:1002E00065FC0120207010BD502A0020F8B50F4693
:1002F000017814460546012901D1687830B120887B
:10030000821C9A422DD8012902D006E00720F8BDB0
:1003100069780144891C994223D8181A801E86B234
:10032000ADF800602188B81C084469467DDF0028CC
:10033000EDD12978022905D1BDF80000B04201D8DD
:1003400009200AE00820012905D16978B14202D8C4
:10035000ADF8001001E0ADF80060BDF80010FE2916
:1003600001D90C20F8BD2288491CB9542188491CA8
:1003700089B2218078542088401C2080BDF800106C
:10038000084420800020F8BD31B540F2E73404E095
:10039000491E20460091FCF73DF800990029F7D14D
:1003A00038BD4907090E002806DA00F00F0202F1F5
:1003B000E02282F8141D03E000F1E02282F800142C
:1003C00000F01F02012191404009800000F1E0206F
:1003D000C0F88012C0F80011704700002DE9F04706
:1003E0008846814601F00EF80125224F0028484634
:1003F00018D0FEF751FD384490F8480080090328D2
:1004000002D0012806D007E01B48006805FA09F56C
:10041000284201D1022100E003214846BDE8F0470F
:1004200000F0B9BE00F0FAFF002821D04846FEF7E0
:1004300033FD04464FF4807000EB84000F4E81B210
:1004400006EB8400D0F8102542F00102C0F8102518
:10045000084600F0DFFEB8F1000F09D04846FEF76D
:100460001BFD57F82000002802D0A540C6F8045311
:10047000BDE8F087A0280020100500500060004073
:100480002DE9FC41DFF8A480054608EB05000027B4
:1004900090F930001346C0170C46401C01D00827C5
:1004A00040E0E27819462846FEF7CCFC0646401CA0
:1004B00037D0A07848B1A80000F1A040D0F80017CC
:1004C00021F00201C0F8001707E0002163782846F8
:1004D00000910A46019100F007FEE078C0B114488F
:1004E000217800EB8600D0F81025124B1A40C0F896
:1004F00010254FF4F8524FF4403302EA052203EA84
:1005000001410A43D0F810150A43C0F8102509E04C
:1005100008EB0600227810F8481F41EA82110170AA
:1005200000E004273846BDE8FC810000A028002038
:1005300000600040FFE0FCFF03490968C14011F082
:10054000010000D0012070471005005070B5124D19
:1005500095F8540008B1082070BD0020411E2A18EB
:10056000401CC0B282F830102028F8D30024204666
:10057000FEF75AFC641CE4B20C2CF8D306210846A2
:10058000FFF70FFF05494FF00040C1F804030120B9
:1005900085F85400002070BDA028002000600040B5
:1005A000034890F85400002800D001207047000054
:1005B000A02800202DE9F0410D460446007923498A
:1005C00001EBC006317911B10820BDE8F08125B9F1
:1005D0001F4900EB400001EB8005294620463260B0
:1005E000FEF7FAFC20680127C0F8007520686B79D7
:1005F000AA792989C0F80C35C0F80425C0F8081577
:10060000A97AE87A226841EA0020C2F81005216838
:100610000020C1F800022168C1F800032168C1F878
:100620001C012168C1F810012168C1F8140121687A
:10063000C1F80401306828B120682979000B40B264
:10064000FFF7AFFE37710020BFE70000382200201F
:10065000C034020010B50179084A02EBC1042179C7
:10066000022901D0012010BD00684FF4827100F012
:10067000E3FD0028F7D001202071F3E738220020A5
:100680002DE9F0410F46044600791849164601EB62
:10069000C0081D463A460021206800F0D8FD3A46C1
:1006A0000121206800F0D3FD206806F0010101EB74
:1006B0005602C0F81425E80701D0102007E0A8076B
:1006C00004D509B1082002E0042000E000202268DF
:1006D000C2F8000209B10C2300E00823EAB2414647
:1006E0002046BDE8F04101F0BABB000038220020EE
:1006F00070B50C460546FFF7ADFF30B928680121FB
:1007000041602846FFF7A6FF08B1012070BD002C0C
:10071000F7D1002070BD000010B501790A4A01230D
:1007200002EBC1020168090B49B201F01F04A340AA
:100730004909890001F1E021C1F8803100680021F8
:10074000C0F80015117110BD3822002070B50546A3
:100750000F480C4690F82710012904D000EB450102
:100760008A7D12B105E0112070BD10F8282F521CAF
:100770000270A0798875E079C8752146284600F096
:1007800075FDE279A179284600F0A0FD002070BD3A
:10079000EC2A002010B504460F4890F827100129D4
:1007A00017D000EB44018A7D1AB110F8282F521E91
:1007B000027000208875C87502460146204600F088
:1007C00085FD40F2FF72D143204600F041F8002041
:1007D00010BD112010BD0000EC2A002070B5174A92
:1007E00092F826300BB1082070BD09B110B102E0BB
:1007F000072070BD1248134B42F80C1B017819609A
:100800001B1D41781960012494760021D17611775F
:100810000D4D51606FF00042C5F808230B4A11607E
:100820008178072005F54175FFF7BBFD02202860A0
:100830000448F0380460002070BD0000EC2A00205D
:1008400008350200F075004000700040047100405F
:100850002DE9F04117460E460546C1EA07401A4CFD
:1008600004EB0511C1F81C050021284600F040FDED
:100870003346012101EB4502144EC907D1403269CC
:1008800013F5006F1BD00A433261C4F80403012141
:10089000284600F02DFD6A004FF00041D140A7F539
:1008A000E0633269FF3B05D00A433261C4F80403B8
:1008B000BDE8F0818A433261C4F80803F8E78A434F
:1008C0003261C4F80803E2E700700040EC2A00201F
:1008D0002DE9F041284D804695F8270010B11120F0
:1008E000BDE8F0810124254E85F827400220C6F896
:1008F000080323480160001D046095F828000128C2
:1009000009D9002700221146384600F0DFFC7F1C81
:10091000FFB2082FF6D305EB4800C27D817D40462B
:1009200000F0D4FC002734601448001D046042F23B
:1009300010744FF4827800E0641E404600F0D0FC52
:1009400008B9002CF8D10F48076095F82800012855
:100950000BD9002405EB4400C27D817D204600F0C8
:10096000B5FC641CE4B2082CF4D30220C6F80403DE
:1009700085F827700020B3E7EC2A002000700040C3
:100980002C760040047100402DE9F04180214FF0A9
:10099000E02201200025C2F880111449134E0831CD
:1009A000086042F210744FF48A7700E0641E384603
:1009B00000F096FC08B9002CF8D10D4805606FF0E6
:1009C0000040C6F808030B4E002486F8275006EBBB
:1009D0004400807D10B12046FFF7DCFE641CE4B2C9
:1009E000082CF4D386F82650BDE8F0810070004052
:1009F00000750040EC2A00202DE9FC5F0646407996
:100A0000DFF80CA10C460AEB4015297E11B1082035
:100A1000BDE8FC9F14B93F4901EB00142A60207B1C
:100A200001270128DFF8F0B0207804D807FA00F099
:100A3000CBF8000001E000F0DDFB2178B946890029
:100A400001F1A041C1F8007767784FF0FF38FF2F20
:100A500007D009FA07F0CBF80000384600F091FB08
:100A600000E04746A0784FF0000BFF2809D0002295
:100A700080465B46CDF800B01146CDF804B000F0DA
:100A800055FBE078FF2804D000F0B4FBE07800F0DC
:100A900078FB7179E0780AEB41118876306822782A
:100AA000C0F80825C0F80C75C0F81085A168C0F81A
:100AB0002415227B617B01B10121012A04D0022A85
:100AC00005D0032A08D105E041F0020104E041F01D
:100AD000040101E041F00601C0F854157279617912
:100AE0000AEB4212D176296811B10421C0F804132F
:100AF0004F46C0F80095286820B1217996F9040086
:100B0000FFF74FFC85F819B02F76002080E7000032
:100B1000842A0020CC3402000C0500501FB5069C2E
:100B200000918DF8042002938DF80C400022694654
:100B300000F024F804B010BD10B541790E4A02EB64
:100B400041110A685AB190F90420012302F01F04F0
:100B5000A3405209920002F1E022C2F880310068FD
:100B60000A681AB14FF0FF32C0F808230022C0F81B
:100B700000250A7610BD0000842A00202DE9F041EE
:100B800014460A464179144B03EB41114B7E13B1D5
:100B90001120BDE8F0810B6801251BB114F0140F82
:100BA00000D14D7692E8C81001F1080888E8C81015
:100BB0004B7F23F003034B778B7EFF2B02D09D40AE
:100BC000064B1D601CB1002048760620E1E7006856
:100BD00001F00EF90020DCE7842A00200C0500500B
:100BE00001790A4A01EB8101006802EBC1024FF072
:100BF000FF31C0F80813D0F800120021C0F800122D
:100C0000C0F80015012082F822007047C42A002095
:100C10000179064A01EB8101006802EBC10105225E
:100C2000C0F80025022081F822007047C42A002065
:100C300070B5064600790D461F4C00EB800104EBB1
:100C4000C10494F8221009B1082070BD15B91B49E0
:100C500001EB00150020C4E90023A06084F8250002
:100C600084F824002946304601F0DCF9296840F276
:100C70000C60890001F1A041C1F800076968890092
:100C800001F1A041C1F80007D5E900023168C1F8BF
:100C90000805C1F80C25A868C1F82405206828B10A
:100CA0003068297B000B40B2FFF77BFB012084F802
:100CB0002200002070BD0000C42A0020EC34020095
:100CC0003EB5074C2569A46900958DF80110019285
:100CD00002948DF802300022694600F033F83EBDE0
:100CE000EC3402003EB500240094069D8DF80110FE
:100CF00002948DF8023001920DB1202200E0002212
:100D0000694600F01FF83EBD10B501790C4A01EBB1
:100D1000810102EBC103196861B101680122090B6D
:100D200049B201F01F04A2404909890001F1E02104
:100D3000C1F88021FFF754FF002083F8220010BD86
:100D4000C42A002030B40D460179084B01EB810123
:100D500003EBC104910702D030BC06207047134654
:100D600001682A46204630BC01F0BCBAC42A0020E3
:100D70002DE9F0411E4E04460D46F07E10B10820CC
:100D8000BDE8F08104B91B4C607F30772046FDF749
:100D90006DF9756029002069174D30604FF000072C
:100DA00016D0217F307F48B1C5F81071C5F8207189
:100DB000C5F82471C5F84471104804E0C5F81C71E9
:100DC000C5F844710E48C5F804030220FFF7E9FA9C
:100DD000307F08B1082000E00420C5F80005F77551
:100DE0003776B7750120F076B7760020C8E70000A7
:100DF000F8280020E42C020000200040100302002C
:100E0000800002002DE9F0411D4D2B7F3BB14FF4D6
:100E10000052B2EB104F02D01020BDE8F081194E05
:100E20006C6800224FF404774FF4017C2CB113B1AD
:100E3000C6F8087301E0C6F808C395F817E0BEF1DC
:100E4000000F0ED02A7E42B12CB113B1C6F8047344
:100E500001E0C6F804C31120DFE7286101222976EA
:100E600004E0E9750024E8606C762C761BB1BDE8DF
:100E7000F04100F063B8BDE8F04100F015B80000A3
:100E8000F82800200020004010B5064C207F0028E4
:100E900006D1A07E002803D100F0CCFC0120A07672
:100EA00010BD0000F82800202DE9F05F214FB87E2A
:100EB000104301D100F0BEFC1F4E786830B14FF4F2
:100EC0000170C6F804030020BDE8F09F4FF0000950
:100ED0004FF4A27AC6F844914FF4927B59463046BB
:100EE00000F013FA05464FF48471304600F00DFA15
:100EF00080465146304600F008FA044648EA0401AC
:100F00002943EBD055EA040005D100F0FDFBF87D44
:100F1000797E8842E2D887F817900DB10320D3E795
:100F20000CB10F20D0E7B97E012009B13060CAE7CB
:100F30007060C8E7F8280020002000402DE9F05F2D
:100F4000204E00274FF48873C6F810714FF4A27436
:100F5000C6F84471C6F83405C6F838158AB1D6F813
:100F6000000240F02000C6F80002DFF85C80D8F8EC
:100F7000040048B14FF40470C6F804030020BDE833
:100F8000F09F01203060F0E79A46A1464FF4927B33
:100F90005146304600F0C4F905464946304600F057
:100FA000BFF904465946304600F0BAF925430543D7
:100FB000EED088F8177008B10320E0E7002CDDD0F0
:100FC0000F20DCE700200040F82800202DE9F04742
:100FD000204E0246307F38B14FF40050B0EB124F34
:100FE00002D01020BDE8F08700F076F808B111209B
:100FF000F8E7B1750023B260B382307F28B3164F93
:1010000000244FF490709846C7F820314FF4AC7329
:10101000C7F85881C7F84425C7F848150121B960B9
:10102000716881B9824699465146384600F078F990
:1010300005464946384600F073F90543F4D000B13F
:101040000F2486F816802046CCE7BDE8F04700F074
:1010500005B80000F8280020002000402DE9F047E6
:101060001B4E4FF000084FF48E77C146C6F81C8126
:101070004FF0010AC6F808A001F07AF9154CB51531
:10108000606868B120E03946304600F03EF910B99A
:10109000A08AA842F7D1A08AA84201D001F068F93D
:1010A000A08AA17D8842EED3A08AA84202D14FF047
:1010B0000F0807E03946304600F027F90028F9D03C
:1010C000C6F80CA084F816904046BDE8F0870000F2
:1010D00000200040F82800200248807D002800D031
:1010E00001207047F828002030B541EA4201DDE9CF
:1010F000034541EA8301800041EA042100F1A04058
:1011000041EA0541C0F8001730BD30B541EA42015F
:10111000DDE9034541EA8301800041EA042100F151
:10112000A04041EA0541C0F8001730BD30B541EAA2
:101130004201DDE9034541EA8301800041EA0421DF
:1011400000F1A04041EA0541C0F8001730BD1CB5D0
:1011500000220B46009211460192FFF7D6FF1CBDFC
:101160001CB5002100910B46012201911146FFF7A9
:10117000CCFF1CBD0321800000F1A040C0F8001787
:1011800070471CB5002100910B46012201911146C8
:10119000FFF7CCFF1CBD800000F5E06000F1A0402F
:1011A000026822F440320260026842EA01410160B2
:1011B0007047000001218140014801607047000034
:1011C0000C0500500121814001480160704700007A
:1011D0000C0500500121814001480160704700006A
:1011E000080500500121814001480160704700005E
:1011F000080500500121814001480160704700004E
:10120000080500500121814001480160704700003D
:1012100008050050034908B5084400210160006832
:10122000009008BD0060004002494058012800D0ED
:1012300000207047006000404058002800D0012086
:101240007047D0F80403084000D00120704700EB3D
:1012500041101368C0F820359188C0F824159168B2
:10126000C0F82815D168C0F82C15704710B50A7859
:101270004B78302402F0030204EA03131A438B78FC
:101280004FF4E06404EA03231A43CB784FF480540C
:1012900004EA03331A430B794FF4E02404EA0343CE
:1012A0001A434B794FF4801404EA03531A430301A1
:1012B00005481844C0F818258A79C979C0F814156A
:1012C000C0F8102510BD0000007000400301034865
:1012D0001844C0F81425C0F810157047007000407D
:1012E00002494058002800D001207047007000409B
:1012F00021B14021400001FA00F070478021F9E758
:101300004058002800D0012070474058002800D0E5
:1013100001207047D0F80403084000D00120704736
:101320004058002800D00120704770B516460D4681
:10133000002405E0285DFCF77FFE0028FAD1641C3C
:10134000B442F7D30A20FCF777FE0028FAD170BD2B
:1013500010B500280AD0032808D10220FDF7CAFBE7
:10136000002803D0BDE81040FCF706BD10BD00000A
:1013700070B50188164C0546102911D0112917D0D7
:101380002046132940881DD052291AD100231A461D
:101390001946A9DF002814D0BDE87040FCF7ECBC6A
:1013A0000720FDF7A7FB08B1FCF7E6FCA88807E0DB
:1013B0000020FDF79FFB08B1FCF7DEFC4FF6FF7045
:1013C000608070BD00231A4685217FDFE2E70000C0
:1013D000802000200078002807D104483B21408865
:1013E00076DF002801D0FCF7C7BC704780200020C2
:1013F0000021425C0AB101207047491C0629F8D33C
:10140000002070470449084490F93000082801DBA7
:101410000120704700207047A0280020044908449C
:1014200090F93000082801D2012070470020704751
:10143000A028002006490979490701D408207047EF
:1014400020B1044949780160002070470E207047A0
:10145000E4200020182900200EB5002001909F20D4
:101460008DF808000A20FFF7A5FE0A20FEF78CFF82
:101470000420009001AB012202A90448FFF74EFBB3
:101480000A20FFF7A7FE01980EBD00000C210020E6
:101490007CB505460024032001948DF80400080C57
:1014A0008DF80500080A8DF806008DF807100A204F
:1014B000FFF780FE0023042201A90C480094FFF7E7
:1014C0002DFB802400222B46114608480094FFF78C
:1014D00025FB002205F18003114604480094FFF724
:1014E0001DFB0A20FFF776FE7CBD00000C210020CA
:1014F0001FB500210446009101910291039106223B
:1015000002A93B2000F05AF89DF909109DF8080047
:1015100041EA0020ADF800009DF90A009DF80B108B
:1015200040EA0120ADF802009DF90C009DF80D1075
:1015300040EA0120ADF8040000982060BDF80400E6
:10154000A0801FBD1FB500210446009101910291AA
:101550000391062202A9432000F030F89DF90910FA
:101560009DF8080041EA0020ADF800009DF90A004E
:101570009DF80B1040EA0120ADF802009DF90C0027
:101580009DF80D1040EA0120ADF80400009820609D
:10159000BDF80400A0801FBD08B500200090022205
:1015A0006946412000F00AF89DF901009DF90010FC
:1015B00040EA012008BDFDF7D9BE000037B582B072
:1015C000012014460D460346009002AA68210548F2
:1015D000FFF788FB23462A4668210248FFF770FB85
:1015E00005B030BD1421002030B5334C89B02079CE
:1015F0001538052852D2DFE800F05151515303004D
:10160000142101A8FAF7E5FF002006908DF81C00D0
:1016100007A839DF9DF81C00032802D903208DF8A4
:101620001C00C1B206A83ADF06986424C0B2B0FB21
:10163000F4F104FB110000F0EFF90698C0F3072065
:10164000B0FBF4F104FB110000F0CCF90698C0F3F4
:101650000740B0FBF4F104FB110000F087F904200F
:10166000FDF72CFC0698C0F30741B1FBF4F204FB34
:101670001215C0F30721B1FBF4F204FB1213C0B240
:10168000B0FBF4F104FB11020CA101A80095FBF7DB
:1016900069FD01AA0421002001F078FA09B030BDEB
:1016A00001F07CF801F094F80022A178104601F0D6
:1016B0007DFA01202070F1E7502A0020523A25647B
:1016C00020473A256420423A2564000070B5012580
:1016D00068044FF0E0210026C1F88001084C40105A
:1016E000C4F84803C4F8080365602F20FAF70AFF1E
:1016F000A560044C2F202661FAF704FFE67070BD48
:10170000001001405422002009480A490022C37DEC
:10171000C1F8082143B1D1F81815437EC268D154ED
:10172000417E491C41767047D1F81805704700008A
:10173000F82800200020004030B58FB00024054676
:101740000D949DF834001C2120F00F00401C20F067
:10175000F00010308DF834009DF8350020F00F00B7
:10176000401C20F0F00010308DF835009DF8360058
:1017700020F00600801C8DF836006846FAF729FF35
:101780009DF80000019440F010008DF800000DA8B5
:10179000CDE904400394069428788DF83A0003209C
:1017A000ADF838000C949DF83000142120F00F00A3
:1017B000401C20F0F00010308DF830009DF8310012
:1017C00020F00F00401C20F0F00010308DF83100A8
:1017D0009DF8320020F00600801C20F0180040F038
:1017E00001008DF8320007A8FAF7F3FE0EA8079063
:1017F0000CA808900120ADF824001420ADF8264074
:10180000ADF82800688805F10C0307AA6946A2DF35
:101810000FB030BD1FB501228DF8080004488DF8C7
:1018200000200191D0E90012684690471FBD0000DA
:10183000F828002004480021C0F82411C0F808113D
:1018400001210160704700000020004008B50249F6
:101850000020009108BD00008020002010B501216B
:10186000202803DA1E4A8140114004E0402805DAAE
:10187000A0F12002914001B1012141B1002809DA13
:1018800000F00F0101F1E02191F8141D06E042F291
:10189000010010BD00F1E02191F800144909082968
:1018A00014D299B1012911D004290FD005290DD0E6
:1018B0000C4B9C6800F01F0201219140400944B18B
:1018C00053F820200A4343F8202007E042F20200A8
:1018D00010BD800000F1E020C0F80011002010BD14
:1018E000FC06FFBC902B00202DE9F0418046806A69
:1018F00014460F46B0B300262EE0D8F8280006EBB9
:10190000460100EB8105A888801CFE2802D90C2026
:10191000BDE8F0812188401C785420881621401CA5
:1019200080B2208039542088401C80B22080C119A8
:10193000288800F003FF2188084480B22080AA880C
:1019400042B1A96871B13844FAF72AFE2088A98803
:1019500008442080761CF6B298F82C00B042CCD80F
:101960000020D5E7FFE70720D2E700001FB50A49AE
:1019700088800A480FC88DE80F000749642008399D
:101980000968C1F80805044802230122694608389D
:10199000FEF776FE1FBD00002C220020AC340200B2
:1019A0001FB50D4AB2FBF0F202FB01F06421B0FB5F
:1019B000F1F00A4908800A481BC88DE81B00074857
:1019C000001D0068C0F8082504480223012269466A
:1019D000001DFEF755FE1FBD40420F0020220020D3
:1019E000603402001FB50A4948800A480FC88DE8D4
:1019F0000F000749642008390968C1F80805044840
:101A00000223012269460838FEF73AFE1FBD000096
:101A10002C2200209C3402001FB50A4908800A4885
:101A20000FC88DE80F000749642008390968C1F81C
:101A3000080504480223012269460838FEF720FE03
:101A40001FBD00002C2200208C3402002DE9F04143
:101A5000C8B0FDF729FAFDF70FFD794E03244FF0CA
:101A6000010870780B2809D2DFE800F0BE060924CF
:101A700027309FA9B6C5DB00FDF798FEB4E071A240
:101A80000221002001F082F8FDF744FE4FF47A7441
:101A900032212046FFF784FF6DA20421002001F0CF
:101AA00075F86EA20621002001F070F83220B460B3
:101AB000307399E06CA2022173E06EA20221002033
:101AC00001F064F80420FDF74DFE8DE0142140A8DC
:101AD000FAF77FFD4FF4807739466846FAF779FDCB
:101AE000002045908DF81801FDF72EFEFFF7B4FC9D
:101AF000024664A140A8FBF735FB40AA0221002062
:101B000001F044F846A839DF9DF81801032801D9EF
:101B10008DF818419DF8181145A83ADF5D4C459A9B
:101B20005DA1224040A8FBF71DFB40AA0421002034
:101B300001F02CF85CA20521002001F027F8459A5D
:101B40005CA1224040A8FBF70DFB40AA0621002023
:101B500001F01CF800206D462854401C80B2FF287C
:101B6000FAD945992846214000F0A4FF3946684635
:101B7000FAF72FFD459968462140FFF789FC0024BC
:101B8000285DA04205D050A20721002000F0FEFFF2
:101B900003E0641CA4B2FF2CF2D9BC4224D14CA2B5
:101BA0000721002000F0F2FF1EE04AA202210020DF
:101BB00000F0ECFFFDF7AEFE4AA20421F1E74DA2D2
:101BC0000221002000F0E2FF4D48C0F800474D49D7
:101BD0004FF00070086007E04BA20221002000F0E7
:101BE000D5FF0120FDF76AFD717808EB41003070E8
:101BF00048B0BDE8F08148A20221002000F0C6FFF5
:101C000047A20321002000F0C1FF48A204210020C8
:101C100000F0BCFF48A20521002000F0B7FF4BA256
:101C2000BEE7FDF75FF9BFF34F8F4D4801684D4A9E
:101C300001F4E06111430160BFF34F8F00BFFDE786
:101C4000502A00204265657020546573742100009D
:101C5000467265713A31303030487A004475747993
:101C60003A353025000000004B65792054657374C7
:101C70003A0000004C696768742041444320746551
:101C800073743A00466C6173682069642069733A22
:101C90002578000000FFFF00577269746520746F9B
:101CA00020307825783A0000307830302D30784672
:101CB00046000000307825782072656164206368F2
:101CC00065636B3A000000004572726F720000009D
:101CD0004F4B00005072657373206B657920646F01
:101CE000776E3A00523A353020473A353020423A42
:101CF000353000004D6F746F20746573743A0000C6
:101D000064000050080500504261747465727920C7
:101D1000746573743A00000056312E3000000000E4
:101D200053657020313520323031390031313A314C
:101D3000343A343300000000537570706F727420B1
:101D400062792072665F736D6172740072662D73C2
:101D50006D6172742E74616F62616F2E636F6D00BE
:101D60000CED00E00400FA0518B10349C86000203A
:101D700070470E2070470000782200201CB50349F0
:101D800001910091694660DF1CBD000080200020A9
:101D900070B50E460546144614211046FAF719FC94
:101DA000012121800020206120732672657205B117
