:020000040001F9
:10C00000203000200D3C0200DBD5010013D60100DA
:10C0100077D6010043D70100BBD701000000000024
:10C020000000000000000000000000006FD90100C7
:10C030009FD9010000000000CFD901008FDE010070
:10C04000E7E0010063E1010075190200A30B0200A3
:10C050009FFE010007E2010069270200CB0E0200EB
:10C06000EBF901007BFF010027120200CF1F020045
:10C07000633802002F3B02009D3B0200BF3B0200E1
:10C08000CB3B0200CB030200EF3B02000B3C020063
:10C090004D040200293C0200213702002B3C020023
:10C0A0002D3C02002F3C0200313C0200333C0200D8
:10C0B000770E0200353C0200000000000000000086
:10C0C000373C0200393C02003B3C0200A7FE010065
:10C0D0003D3C02003F3C0200413C020000000000E9
:10C0E0000000000000000000000000000000000050
:10C0F0000000000000000000000000000000000040
:10C10000000000000000000000000000000000002F
:10C11000000000000000000000000000000000001F
:10C400002DE9F04F82460FF25860A5B015461E4642
:10C41000D0E90023CDE9122303AF00207960B86290
:10C420000DF1500900E045440020ADF8020012ABC8
:10C430004FF0FF3229460DF1020001F0AEF88046C0
:10C44000B8F1010F08DA2878B0F1010868EB0808A4
:10C450006FEA08004FEAD078BDF8020025280CBF2B
:10C46000A8F1010BC346BBF1010F0EDB2C4614F8FB
:10C47000011B7868D0470028786000F0F880B86A1F
:10C48000401CBBF1010BB862F1D1BDF802002528B8
:10C4900007D1002038617861B861F861386278624C
:10C4A00005E00028BFD1B86AE2E240F0010015F8CB
:10C4B000011F2029F9D023290DD02B2904D02D29A3
:10C4C00006D030290AD00CE040F0020080B2EEE73E
:10C4D00040F00400FAE740F00800F7E740F01000F1
:10C4E000F4E72A290ED13168316051F8042B31600C
:10C4F000002A3A6304D5514240F00400396380B207
:10C500006D1C13E0002139630BE0396B6FF00043C1
:10C51000994205D001EB810302EB430130393963C5
:10C520006D1C2A78A2F130010A29EED329782E2930
:10C5300003D04FF0FF31F9621FE015F8011F2A29DF
:10C5400007D1316831606D1C51F8042B3160FA62FB
:10C5500013E00021F9620BE0F96A6FF000439942A1
:10C5600005D001EB810302EB43013039F9626D1C08
:10C570002A78A2F130010A29EED3B8860FF2E840FA
:10C58000297801F01FF808B115F8010B8DF8420069
:10C590009DF84200682802BF29786829622005D0EA
:10C5A0006C2804BF28786C2803D171208DF84200D4
:10C5B0006D1C14A8F86015F8014BB4F125002AD0C1
:10C5C0001C3800F0DB80001F022840F2D7801338AF
:10C5D00000F0FB80093800F0D180801E00F06581FA
:10C5E000401E00F03C81401E022840F2C780001F20
:10C5F00000F03581401F00F09280401E00F0E58081
:10C60000401E37D0C01E0BD0801E00F0DE80C01E42
:10C6100000F0DB806CE125208DF85000012070E1F6
:10C620009DF842006C283068306016D050F8048BBA
:10C630003060C7F80880FC6A002C04D5404600F042
:10C64000CDFF044607E022460021404600F0E2FF0D
:10C6500008B1A0EB08047C6154E150F8042B306071
:10C6600002A9504600F03EFA002840F14B814FF0FD
:10C67000FF30FDE131683160002251F8040B316078
:10C680004FF03C0E0021CDE9020114A8B860DDE9AD
:10C6900002019142FC6808BF904201D1FA6AC2B11E
:10C6A00000F00F033033DBB23A2BA8BF2733AEF1D3
:10C6B00001020009A354964640EA017009090022CC
:10C6C000914208BF904204D0BA6804EB0E039A422C
:10C6D000E6D304EB0E01B960CEF13C00F96A786153
:10C6E000884207DA081AF8614FF6EF71B88E0840F1
:10C6F000B88607E1002940F1058197F8341001F070
:10C700001401102940F0FE80396B3A69891AFA69E0
:10C71000891A081A0128C0F2F580F861F2E09DF844
:10C72000420062281AD0682806D06A280CD06C28EB
:10C730001CD0712808D019E03068306050F8041B14
:10C740003060B86A0880DDE03068306050F8042B53
:10C750003060B86AC117C2E90001D3E030683060C8
:10C7600050F8041B3060B86A0870CBE03068306065
:10C7700050F8041B3060B86A0860C3E03068C01D20
:10C7800020F007023260D2E9000108323260CDE9C0
:10C790000201002902D538692D2109E0B88E8107F0
:10C7A00002D538692B2103E0C00705D5386920215F
:10C7B00009F80010401C386114A839690844B860B1
:10C7C000214602A800F09AFB9CE09DF842006C28EC
:10C7D0000DD0712818BF6A2809D13068C01D20F01B
:10C7E00007023260D2E900010832326005E03168A8
:10C7F000316051F8040B31600021CDE902019DF850
:10C800004200682803D1DDE9020180B20BE0622812
:10C8100003D1DDE90201C0B205E0742818BF7A280F
:10C8200004D1DDE902010021CDE9020197F83400CD
:10C83000000731D5DDE902230020834208BF824290
:10C840002AD044F02000782826D13869302109F810
:10C850000010401C411C396109F800401CE09DF8A3
:10C860004200314600F007F9CDE90201DDE902237B
:10C8700000218B4202DA38692D2109E0B88E810748
:10C8800002D538692B2103E0C00705D5386920217E
:10C8900009F80010401C386114A839690844B860D0
:10C8A000214602A800F0A4FA2CE09DF842006C2872
:10C8B00009D0012038613068306050F8041B3060C6
:10C8C0008DF850101EE03068306001AA50F8041B4B
:10C8D0003060ADF804100020ADF8060002A94FF05A
:10C8E000FF30F862504600F0FDF800280AD5BEE699
:10C8F00025208DF85000012038611CB189F80140D5
:10C9000002203861386B3969401AF969401A79692F
:10C91000401A396A401AB969401A796AA0EB0108CD
:10C9200097F83400400711D42020B8F1010F8DF89A
:10C9300000000BDB444601236A4602A9504600F082
:10C9400007FE00287FF493AE641EF4D1D7F810B030
:10C95000BBF1000F14AC0DD014F8011B7868D04760
:10C96000002878603FF483AEB86A401CBBF1010B2D
:10C97000B862F1D130208DF80000FC69012C0ADB8F
:10C9800001236A4602A9504600F0E2FD00287FF428
:10C990006EAE641EF4D1D7F814B0BC68BBF1000FC2
:10C9A0000DD014F8011B7868D047002878603FF458
:10C9B0005EAEB86A401CBBF1010BB862F1D1302009
:10C9C0008DF800003C6A012C0ADB01236A4602A9AB
:10C9D000504600F0BDFD00287FF449AE641EF4D13E
:10C9E000B8687969D7F818B04418BBF1000F0DD0BA
:10C9F00014F8011B7868D047002878603FF437AE00
:10CA0000B86A401CBBF1010BB862F1D130208DF83F
:10CA100000007C6A012C0ADB01236A4602A9504609
:10CA200000F096FD00287FF422AE641EF4D197F842
:10CA3000340040077FF5F8AC2020B8F1010F8DF8E5
:10CA40000000FFF6F1AC01236A4602A9504600F04F
:10CA50007FFD00287FF40BAEB8F10108F3D1E3E4C9
:10CA60000000000000000000686A6C747A4C00004E
:10CA700025B0BDE8F08F622826D068281DD06A282E
:10CA800008D06C2827D0712804D0742823D07A28A5
:10CA90000CD020E00868C01D20F007000860D0E935
:10CAA0000023083008601946104670470A680A607B
:10CAB00052F8040B0A60002170470A680A6052F8B5
:10CAC000040B0A6000B20BE00A680A6052F8040B1B
:10CAD0000A6040B204E00A680A6052F8040B0A6077
:10CAE000C11770472DE9F44F0D4694B0D5F830A02A
:10CAF000BAF1000F804648BF6FF0004A00F0B6FD63
:10CB0000696B401801900FF67820D0E90023CDE939
:10CB1000022395F83800400702D40198412805D235
:10CB200040200DF110090190002609E000F0A4FD5D
:10CB30005FEA0009F8D14FF0FF3056E1AAEB040A92
:10CB4000BAF1010FC0F2CE801498018802AA0DF14B
:10CB5000010000F0E9FD0028044600F1DE80149891
:10CB6000008810B9641E00F1D880A245C0F2BA80D6
:10CB7000686901992218914280F0A2806E63404258
:10CB8000296A401AA969401A696A401AE969401A73
:10CB9000A96A461A95F83800400710D42020012EC3
:10CBA0008DF800000BDB374601236A4629464046D4
:10CBB00000F0CEFC002840F0B0807F1EF4D1D5F804
:10CBC00014B0BBF1000F4F460DD017F8011BA86839
:10CBD000C0470028A86000F0A080E86A401CBBF1B4
:10CBE000010BE862F1D130208DF800002F6A012F8F
:10CBF0000ADB01236A462946404600F0A9FC0028CA
:10CC000040F08B807F1EF4D1D5F818B0EF68BBF1EF
:10CC1000000F0CD017F8011BA868C0470028A860B7
:10CC20007BD0E86A401CBBF1010BE862F2D13020F6
:10CC30008DF800006F6A012F09DB01236A4629463F
:10CC4000404600F085FC002867D17F1EF5D1E868DA
:10CC5000A969D5F81CB04718BBF1000F0CD017F824
:10CC6000011BA868C0470028A86056D0E86A401C8D
:10CC7000BBF1010BE862F2D130208DF80000AF6A01
:10CC8000012F09DB01236A462946404600F060FC7B
:10CC9000002842D17F1EF5D195F8380040070DD508
:10CCA0002020012E8DF8000008DB01236A4629466A
:10CCB000404600F04DFC80BB761EF6D100266E612A
:10CCC000224668690DF10101484400F03BFD6869A6
:10CCD000201868611498801C1490801E0088002819
:10CCE0007FF42CAF686B6969401A296A401AA969F8
:10CCF000401A696A401AE969401AA96AA0EB010A58
:10CD000095F83800400710D4BAF1010F0DDB5446F6
:10CD1000A8682021C047A86010B94FF0FF365DE039
:10CD2000E86A401C641EE862F2D16B694A462946F3
:10CD3000404600F00DFC0028EFD12C6A012C0ADBE4
:10CD4000A8683021C0470028A860E6D0E86A401CE7
:10CD5000641EE862F4D1AB69EA682946404600F0F7
:10CD6000F7FB0028D9D16C6A012C0ADBA8683021B6
:10CD7000C0470028A860D0D0E86A401C641EE86262
:10CD8000F4D1E868A969EB6942182946404600F0E9
:10CD9000DFFB0028C1D1AC6A012C0ADBA868302176
:10CDA000C0470028A860B8D0E86A401C641EE8624A
:10CDB000F4D195F8380040070ED5BAF1010F0BDB1E
:10CDC000A8682021C0470028A860A6D0E86A401CB7
:10CDD000BAF1010AE862F3D16E616E6304A881457D
:10CDE0001CBF484600F0EAFC304615B0BDE8F08FA5
:10CDF0002DE9F343054608462F696F2808BF08242C
:10CE000005D041F02001782914BF0A2410243C26C3
:10CE1000D5E90023642818BF69289046994606D1B1
:10CE200000218B4203DAD8F1000869EB49090020A0
:10CE3000814508BF80450CD1286B50B9082C38D1EA
:10CE400095F83800000734D530203B2687F83B00A2
:10CE50002FE0701E00900646404649462246E317E2
:10CE600000F0ECFC02F13000C0B23A2803DB9DF880
:10CE7000041051390818B855494640462246E31770
:10CE800000F0DCFC804689460020814508BF8045D3
:10CE900003D0E868B9198842DBD3082C09D195F88A
:10CEA0003800000705D5B85D302802D0761E302046
:10CEB000B855B919E960C6F13C00296BA8618842F0
:10CEC00008DA081A28624FF6EF71288F0840288781
:10CED000BDE8F38300290ED595F8381001F0140150
:10CEE000102908D1696B6A69891A2A6A891A0E1A87
:10CEF000012EA8BF2E62BDE8F38300002DE9F24F9A
:10CF000004468EB0D4E90001CDE9020104AF9DF8DA
:10CF1000380040F0200BBBF1610F0AD0206B0028D5
:10CF200048BF062004D408BFBBF1670F01D1012020
:10CF300020636168C1F30A5040F2FF7290421CD135
:10CF4000080304BF2068002809D10320A0619DF8D0
:10CF5000380061381A2835D30FF2386108E0032011
:10CF6000A0619DF8380061381A2828D30FF21C619F
:10CF7000E068032200F0E6FBBDE1012815DA204657
:10CF800000F0D3FC012810DB00250020BBF1610F6D
:10CF90001FD1E16830220A708A1CE2609DF83820B7
:10CFA000612A0CBF782258220FE0626840F2FE31FD
:10CFB00061F31E52451A62604FF0FF30E6E70FF250
:10CFC000C851D5E70FF2C851D2E74A706169891C90
:10CFD000616110B90026002584E1BBF1610F40F0CA
:10CFE0009880206BD4E900AB00284CBF2126461C5A
:10CFF000DDE902010022002300F0BAFC36B23ABF9C
:10D000008BF00040CDE902A0CDE902AB06F10108AA
:10D010002D1FB8F1010F8DF810200DF1110736DB2F
:10D02000DDE902010022002300F0BAFC2FD21C210E
:10D0300002A800F0CDFCDDE9020100F053FDA8F1EB
:10D040000708B8F1010F814609DB00F077FD0246C1
:10D050000B46DDE9020100F089FDCDE90201F81D72
:10D06000072105E009F00F0200F8012D4FEA291908
:10D07000B9F1010F01DB491EF4D5491E5CBF002246
:10D0800000F8012DF9D5C71DB8F1010FC8DA0DF16F
:10D090001100391AB142B8BF0E4636B230000DF158
:10D0A00011072FD4884206DA04A9014449780829D7
:10D0B000A8BF0F2100DA002104AA024400E0761E76
:10D0C00012F80139401E8B42F9D00F2904D104A96E
:10D0D00001444A78521C4A70002802D504AF761CDD
:10D0E0002D1D36B2701E0DD439180A783032D2B2E6
:10D0F0003A2A03DB9DF838303A3B9A18401E01F873
:10D100000129F2D5206B002840F1EC80701E2063CD
:10D11000E8E0DDE902010022002300F029FC3CBF29
:10D1200081F00041CDE902012DB247F297506843EA
:10D130004B49DFF8309190FBF1F52DB2C5F1070AAC
:10D14000BAF1010F90461CDBDDE902675FEACA70A5
:10D1500007D542464B463046394600F0C7FD0646E5
:10D160000F464046494642464B464FEA6A0A00F09F
:10D17000BDFDBAF1000F80468946E7D1CDE90267CF
:10D1800024E0CAF1000A0026374F14E05FEACA70B3
:10D1900007D542464B463046394600F0A7FD0646C5
:10D1A0000F464046494642464B4600F09FFD4FEA37
:10D1B0006A0A80468946BAF1000FE7D1DDE902012B
:10D1C00032463B4600F064FECDE90201BBF1660F3A
:10D1D000216BDFF898900CBF05F10A000620461875
:10D1E000142EA8BF132630208DF810000DF1110762
:10D1F000012E3DDBDDE9020100F08AFC07F10801A8
:10D2000004220A23B0FBF3F303EB8307A0EB4700F0
:10D21000303001F8010C0A20B3FBF0F000EB80077E
:10D22000A3EB47033033521E01F8023DE9D1083E1B
:10D23000012E01F10807DBDBDDE9020100F068FCEB
:10D2400000F086FC02460B46DDE9020100F08EFC90
:10D2500000224B4600F04AFDCDE90201CAE700BFBB
:10D26000A0860100000024400000F03F84D79741D1
:10D270000DF11100381A0DF1110702E0401E6D1E6C
:10D280007F1C39783029F9D0BBF1660F08BF691CC3
:10D2900004D0BBF1650F0CBF01210021226B8E1859
:10D2A00036B2B042B8BF064636B231001AD4814217
:10D2B00004DA785C3528A8BF392000DA30207A18E3
:10D2C000521E00E0761E12F80139491E8342F9D041
:10D2D000392802D1785C401C7854002902D57F1E81
:10D2E000761C6D1C2DB29DF83810009533B23A466D
:10D2F000204600F003F80FB0BDE8F08F2DE9F047AD
:10D3000086B006468A4690461D4600F00AFF012D6B
:10D31000406A376B90F8009002DA01250FF2782806
:10D320004AF02000BDF93840662808BF641C12D0BE
:10D33000672878D114F1040F7BDBBC4279DA96F8C8
:10D340003800641C000702D4BD42B8BF2F4624B287
:10D350003F1B48BF002724B2F068B169012C23DAD3
:10D360004A1C30234354012F03DA96F83800000793
:10D3700003D5F06800F80290521CE742B8BF7C4227
:10D3800024B260427062E719AF42B261B8BF3D4655
:10D39000F068B3692DB2F5612A464146184400F0A1
:10D3A000D1F9781BB062BCE022469542084416DAF7
:10D3B0002A46414600F0C6F9B1696918601B012F81
:10D3C000B161706203DA96F83800000705D5F0689D
:10D3D00000F80190F069401CF061B762A1E041469D
:10D3E00000F0B0F9B06920182D1B012F03DA96F870
:10D3F0003810090703D5F16801F80090401CB061AE
:10D400002DB2AF42B8BF3D46F068B3692DB22A468F
:10D4100008EB0401184400F095F9B0692818B061D0
:10D42000781B70627DE0BAF1610F14D14FF0700A81
:10D4300016E0BD4204DA96F83810090758BF2F46A7
:10D440007F1E48BF0027BAF1670F14BF4FF0450A8F
:10D450004FF0650A04E0BAF1410F08BF4FF0500ADF
:10D46000B169F368481CB061012F18F8012B5A54B8
:10D4700003DA96F83810090717D5F168431CB36131
:10D4800001F80090012F10DB6D1E2DB2AF42B8BF26
:10D490003D46F0682DB22A464146184400F052F944
:10D4A000B0692818B061781B7062F068B1690144F6
:10D4B000200081F800A004D42B20487001F102085C
:10D4C00004E02D224A7001F102086442002502AFF7
:10D4D00008E00A22684600F03DFE019807F8010BBB
:10D4E0006D1C009C21B20129F3DA022D06DA4AF004
:10D4F0002000652804BF302008F8010B4DB930200A
:10D5000008F8010B07E06D1E02A8405D303008F8F6
:10D51000010B012DF7DAF068B1690844A8EB0000AF
:10D52000F06196F8380000F0140010280DD17069F1
:10D53000B1690818716A0818F1690818B16A081801
:10D54000716B8842BCBF081A306206B0BDE8F08734
:10D55000F8B504460D4616461F46002077B116F86A
:10D56000011BA868A047A86030B1E86A401CE862C7
:10D5700000207F1EF3D1F2BD4FF0FF30F2BD00005E
:10D5800000000000000000006E616E004E414E0081
:10D59000696E6600494E46003000F8B504460D46F7
:10D5A00016461F4600F0DEFD3B4632462946204621
:10D5B00001B0BDE8F04000F0ECBD0268531C036010
:10D5C000117070470278C9B28A421AB11CBF10F8B4
:10D5D000012FF9E718BF00207047FEE700F10103B3
:10D5E000810704D010F8011B89B18107FAD10268C4
:10D5F000B2F10131914311F0803F04BF50F8042F84
:10D60000F6E710F8011B11B110F8011BFBE7C01A77
:10D610007047FEE7C9B2830706D0521E22D310F826
:10D62000013B9942F7D11FE0083A13D302F10402FB
:10D6300041EA012141EA014150F8043B121F21BF98
:10D640004B40A3F1013C2CEA030C1CF0803FF3D0CB
:10D65000C9B2001F083210F8013B521E28BF91EAE0
:10D66000030FF8D818BF0120401E704780B500F0A6
:10D6700079FD012002BDFEE770B5054605F10F00FA
:10D68000C408AFF30080E400A54232D2082C04D2D3
:10D69000082402E0083000F091F8224802681100E6
:10D6A0000CD1011D0A6802B31368A34238BF111DD3
:10D6B000F8D310E01D68A5420DD2191D0B68002B90
:10D6C000F8D11268011D00E0191D0B6893420CD0BF
:10D6D0001D68A542F8D361B10D682A68A2F108035C
:10D6E000A3420AD26A680A600FE000F075FD0028C4
:10D6F000D0D1AFF30080002070BD2B190B60121B3E
:10D700006E685E600B681A602C60096800291DBF96
:10D710004A68002A091D00210160AFF3008005F16D
:10D72000080070BD3037002070B504460D4616461F
:10D7300000F018FD324629462046BDE8704000F052
:10D740001BBDFEE762B38B0708D0521E11F8013BE8
:10D7500000F8013B00F024808B07F6D1830740F0EE
:10D76000208000BF103A07D330B4B1E83810103A27
:10D77000A0E83810F9D230BC530724BFB1E8081034
:10D78000A0E8081044BF51F8043B40F8043BD2071E
:10D7900024BF31F8022B20F8022B44BF0B78037012
:10D7A0007047083A07D3B1E80810083A40F8043B3C
:10D7B00040F804CBF7D25307E4E7FEE700B970471F
:10D7C00038B5A0F108042068082833D310F0070FFB
:10D7D00030D1AFF300801848416809B18C4203D2C0
:10D7E0006160446017E019464B680BB1A342FAD35D
:10D7F0000B68CD18AC421BD3A54204D12268D218C5
:10D800000A600C4607E04A681AB1236823449A422A
:10D810000ED362604C60616851B12268A3188B42DC
:10D8200006D10023036008688018206048686060A3
:10D83000AFF3008031BD0000303700201B4213D110
:10D84000094236D12AB18446B0FBF2F002FB10C285
:10D85000704700F0D7BCFCD30022002370470B00B8
:10D860000200002100207047904271EB030CF6D3B8
:10D8700070B5B1FA81F4B3FA83F52C1BA340C4F15F
:10D88000200532FA05F63343A2405FF00046E64039
:10D8900002E05B085FEA3202841A71EB030524BFE1
:10D8A000204629467641F4D302000B0030000021C7
:10D8B00070BD012ACFD970B5140C20D0B1FA81F413
:10D8C000B2FA82F5C4F120046419B4F12006D6D36B
:10D8D000B2405FF00044F440002502E052085FEAE5
:10D8E0003303C61A71EB020E24BF30467146644101
:10D8F0006D41F3D302000B002000290070BD0C46DF
:10D90000B1FBF2F102FB11452D0445EA1045B5FBD0
:10D91000F2F402FB145580B240EA0545B5FBF2F083
:10D9200002FB105240EA044070BD30B4436803F07B
:10D9300000420121C3F313034360002B04BF0368BB
:10D94000002B08D10DE00368DD0F45EA4404446074
:10D950005B000360491E4468E302F4D5C4F313037B
:10D96000436043681A434260084630BC7047FEE794
:10D970004FF4001C1CEB410F94BF1CEB430F09E05C
:10D9800041EA030C50EA4C0C52EA0C0C03D29942C7
:10D9900008BF9042704714BF8B4282427047FEE737
:10D9A0004FF4001C1CEB410F94BF1CEB430F09E02C
:10D9B00041EA030C50EA4C0C52EA0C0C03D28B42A5
:10D9C00008BF8242704714BF994290427047FEE7F9
:10D9D00070B504460D466068C0F30A5040F2FF710E
:10D9E000884207D16068000304BF2068002817D070
:10D9F000022070BD20B92046FFF797FF012866DAA4
:10DA0000012D0FDB40F2FF71091A8D420AD36068C5
:10DA100000284CBF9FED2F0B9FED300B84ED000BCA
:10DA2000012070BD4142A942616806DA6FF31E51C0
:10DA3000401941EA0050606040E0401E63684519AB
:10DA4000012205F1350062F31F53352801F0004132
:10DA5000636003D361600020206070BD002015F179
:10DA60001F0F04DA206823600022203562606A42BA
:10DA700012D0401E25688041C2F12003C0439D4062
:10DA800045EAD07025686668D54006FA03F32B4353
:10DA900023606368D340636062680A43B0F1004F5B
:10DAA000626003D80DD12078C0070AD52068401CD9
:10DAB0002060206828B96068401C60604FF0FF302B
:10DAC00070BD6068884204BF20680028F6D100203D
:10DAD00070BD00BF000000000000F0FF000000006B
:10DAE0000000F07FF446400D40EAC120490006D214
:10DAF00000F014F8004248BF6FF00040604700F0AB
:10DB00000DF84FF0004188428CBF08464042604704
:10DB1000400D40EAC120490080F00D8040F00040F7
:10DB2000490DA1F58061491C05D4D1F11F0154BFF5
:10DB3000C840C01770474FF000007047010040F127
:10DB40000980F446404200F005F851F0004160477A
:10DB5000010000BF09D0B0FA80F18840C91CC1F5AE
:10DB60008461090501EBD02140057047F0B44FF006
:10DB7000004591EA030F44BF6B4000F045BB00BF76
:10DB8000841A71EB030604D26E40001BB1411219D6
:10DB900073414FF4001C1CEB410F34BF7CEB430678
:10DBA00084E00C0DA4EB1356362E7DDC012E43DCF5
:10DBB00045EAC32343EA525312BFD20292025B08E2
:10DBC000240545EAC12141EA5051D2EBC0209941D8
:10DBD00025D407D1B0FA80F610FA06F164D00020FF
:10DBE000203608E0B1FA81F6B140C6F1200220FAF1
:10DBF00002F21143B0404FEAF474B4EB465434F0EF
:10DC000001064FEA74040AD8D6F50016760D04F022
:10DC10000044F04061FA06F25040F1404840C00A2A
:10DC200040EA415021F0004128BF5FEA500550F121
:10DC3000000044EBD12137E045EAC323DB0A45EA83
:10DC4000C121C90AB6F120050EDD42EA0242120CDA
:10DC5000C5F1200603FA06F6EB4042EA06056D42DE
:10DC6000984161F100010DE062FA06F5F24055407D
:10DC700063FA06FC82EA0C02F3405A406D4290417E
:10DC800061EB030111F4801F05D1641E620502D00F
:10DC90006D004041494121F48011430875F1004372
:10DCA00050F1000041EB0451F0BC70471CEB410FF8
:10DCB00015D223F0004352EA43060BD04FEA4C0C36
:10DCC000BCEB410F04D80C0D661E342EB7DDEBE71C
:10DCD000801A994150EA410608BF0021E4E708BFD5
:10DCE0001CEB430F28BF6FF00001DDE7B0B581EA00
:10DCF000030C0CF0004C40F2FF7515EA11541DBFE7
:10DD000015EA1357AC42AF4239E0E41923EA455310
:10DD100043F48013C90241F0004141EA505EC7025A
:10DD20001100A7FB020200284FF00000EEFB0120CB
:10DD30004FF00001E3FB072118BF42F00102401839
:10DD400000214941E3FB0E01A4F580640F0302D2D8
:10DD500052004041494154F101046CDD470872F121
:10DD6000004250F1000051EB0451A1F580115CBF5D
:10DD700041EA0C01B0BD4CEA05510020B0BD05EAF6
:10DD80001357AC4214BFAF4241E050EA410E1CBFF2
:10DD900052EA430E02E061460020B0BD24423C44FA
:10DDA0001BD15FEA070EF6D0090302BF014600202F
:10DDB000AEF1140EB1FA81F7AEEB070401FA07FEDB
:10DDC0000C37C7F1200100FA07F7C8404EEA000EF1
:10DDD00023EA455343F48013A2E733F00043B3FA38
:10DDE00083F704BFB2FA82FE77440B3FE41BB7F11E
:10DDF000200E2FBF02FA0EF3BB40C7F1200E22FA0D
:10DE00000EFE38BF43EA0E03BA40641C82E750EAB4
:10DE1000410E14BF52EA430E6FF000014FF4001799
:10DE200017EB430F8ABF194617EB410FB5E74CEAD2
:10DE300005510020B0BDD4F10104B4F120070FDA80
:10DE4000C4F12007520828BF42F0010210FA07F57A
:10DE500001FA07F7E1BF2A43E0403843E1400FE011
:10DE6000352C98DCC7F1200452EA400220FA07F270
:10DE700018BF42F0010231FA07F0A1400A43002125
:10DE800072F1004250F1000051EB0C01B0BDFEE711
:10DE90002DE9F04140F2FF7581EA030C0CF0004CD3
:10DEA00015EA11541DBF15EA1357AC42AF42E9E021
:10DEB000BC41C1F31301C3F31303801A994143F426
:10DEC000801304D2641E4000494180185941C902A0
:10DED00041EA5051B1FBF3F603FB1611A2FB0675A4
:10DEE000D7EBC020A94102D2761E80185941C90241
:10DEF00041EA5051B1FBF3FE03FB1E11A2FB0E756C
:10DF0000D7EBC020A94103D2AEF1010E80185941D0
:10DF1000890241EA9051760546EA8E2EB1FBF3F66E
:10DF200003FB1611A2FB0675D7EB8020A94102D294
:10DF3000761E80185941C90241EA50514EEA060E38
:10DF4000B1FBF3F603FB1611A2FB0675D7EBC0205D
:10DF5000A94102D2761E80185941C90241EA5051A6
:10DF6000B1FBF3F703FB1711A2FB0735D3EBC0207E
:10DF7000A94167F100070CBF004247F0010766F3B3
:10DF8000D5274FEA1E31B80814F5806414DDBD07AB
:10DF900075F1004250EB0E5051EB045111F5801F0A
:10DFA0005CBF41EA0C01BDE8F0814CF07F6141F0BB
:10DFB000E0410020BDE8F081BD076D0840EA0E5049
:10DFC00041F48011D4F10104B4F120060ADAC4F15D
:10DFD00020060200E04001FA06F3E1401843B24097
:10DFE00015430EE0342C14DCC6F1200445EA40054C
:10DFF0006D0820FA06F2154321FA06F0A1400D4300
:10E00000002175F1004250F1000051EB0C01BDE818
:10E01000F08100205FEA0C01BDE8F081CFB99218D1
:10E020005B41B3FA83F704BFB2FA82F6BF190B3F24
:10E03000B7F120062FBF02FA06F3BB40C7F1200656
:10E0400022FA06F638BF3343BA401CB1E419641E05
:10E050002FE77F4231F00041B1FA81F404BFB0FAFA
:10E0600080F6A4190B3CB4F120062FBF00FA06F18C
:10E07000A140C4F1200620FA06F638BF3143A04083
:10E080003C1B16E7AC421ABF05EA1357AF4214E037
:10E0900050EA41061CBF52EA4306BFE750EA410777
:10E0A000304661461CBF41EA0551BDE8F08152EAA5
:10E0B000430C08BFC143BDE8F08100204FF40016B7
:10E0C00016EB410F98BF16EB430F08BF16EB410F3D
:10E0D00024BFC14305E016EB430F0CBF61464CEA79
:10E0E0000551BDE8F081FEE780B51348C046C04643
:10E0F0000FF24C020FF244010160426241600FF2E4
:10E100004402826381600FF24402C1600161416197
:10E1100081618162C16201634163C26301644164E0
:10E1200001BD10B50448C046C0460446206808B981
:10E13000FFF7DAFF204610BD242700200000000072
:10E140002E00000066616C736500000074727565D6
:10E150000000000091FBF2F303FB1211C0E9003153
:10E160007047FEE780B5DFF80C00C046C046806906
:10E1700002BD0000B427002030B430B90FF24800CF
:10E18000D0E90045C2E900451BE00170012030BC28
:10E19000704730B431B90FF23800D0E90045C3E917
:10E1A00000450EE01AB930BC6FF00100704708B1AD
:10E1B0000A7802800978481E804130BCC043C00FF5
:10E1C0007047002030BC70470000000000000000D5
:10E1D00000000000000000000749086808B10020A6
:10E1E00070470648C008C00008600549C908C90052
:10E1F000091A0160704700BF3C370020273000201B
:10E20000203200207047FEE7841A71EB030603D228
:10E21000001BB141121973414FF4001C1CEB410F5C
:10E2200034BF7CEB430443E00C0DA4EB1356352EB6
:10E2300050DC45EAC323DB0A45EAC121C912B6F125
:10E2400020050DDD63FA05F6EB4086EA0305124270
:10E2500018BF45F00105C01851F100010CD213E0C0
:10E2600062FA06F5F2405540F3415A40B340F3409C
:10E270005A408018594107D349085FEA30005FEAE5
:10E28000350528BF45F0010501F58011420875F1FB
:10E29000004250F1000041EB0451F0BC4FF4001C6F
:10E2A0001CEB410F38BF70470020090D090570476E
:10E2B0001CEB410F10D252EA43060BD0BCEB410FCE
:10E2C00005D80C0DAB43661E342EB5DD02E0AB4322
:10E2D00080185941F0BC7047F0BC704710B500245D
:10E2E000641CE0B200F06DFC072CF9DB10BD70B5CA
:10E2F00000F04BFCDFF8F4450FF29076E06840F454
:10E300008070E060002500F09BFE0120A07060702E
:10E31000207000220121002000F0E1FCE0782918A3
:10E320000A2908D228180A2148433218691CC9B2A0
:10E33000012000F0EEFC6D1C072DEFDB70BD70B509
:10E34000FFF7CCFF00F07CFE00240FF24075DFF8F1
:10E350009C65F07821180A2908D220180A21484320
:10E360002A18611CC9B2012000F0D3FC641C072CE0
:10E37000EFDB70BD10B500F044F8A078012807D19C
:10E380006178012904D0E078401E00F038F805E0FB
:10E39000401EA070C0B208B90720A0706078401E6F
:10E3A0006070C0B220B90A206070032000F027F826
:10E3B0001EE010B500F025F86078401C6070C0B217
:10E3C0000B2804D101206070002000F018F860785C
:10E3D000E178411A082908DAA078401CA070C0B280
:10E3E000082805D10120A07002E0C01F00F007F846
:10E3F000A178BDE810400022002000F070BCE07061
:10E400009DE7DFF8E844A1780122002000F067BC16
:10E4100070B5C8B0FFF762FF00F012FEDFF8CC4421
:10E420006078401E092808D8DFE800F0050D282E86
:10E4300036A1ABB9C1D701F00FF860784000401C9D
:10E44000207048B070BD0FF2CC4200F0DAF801F055
:10E4500021F932214FF47A7001F035F90FF2C04200
:10E46000042100F0CFF80FF2C442062100F0CAF8F0
:10E470004FF47A70A06032202073DEE70FF2B842CA
:10E48000022100F0BFF8D8E70FF2B84200F0B9F867
:10E49000042001F0F4F9D0E702A8142101F0A2FA57
:10E4A00007A84FF4807101F09DFA002000908DF8CC
:10E4B000040001F0B7FA01F0C3FA02460FF29441EA
:10E4C000DFF82C5402A801F059FB02AA022100F047
:10E4D00010F901A839DF9DF804000428A4BF032027
:10E4E0008DF804009DF8041068463ADF00980FF29A
:10E4F000744100F081F802AA00F0FAF80FF27442B9
:10E50000052100F07FF800980FF2744100F074F8D4
:10E5100002AA062100F0EDF8002007AE3054401C9E
:10E52000FF28FBDD009805EA000107A801F0AFFA1B
:10E530004FF4807107A801F055FA009805EA000130
:10E5400007A801F0D9FA0025705DA84205D00FF2A6
:10E550004442072100F056F803E06D1CADB2FF2DD8
:10E56000F2DDB5F5807F19D1BDA2072189E70FF251
:10E570002C4200F046F801F0C2F80FF230420421BC
:10E580007FE70FF2384200F03CF8DFF86813032011
:10E5900008604FF00070DFF8601308604DE70FF27D
:10E5A000284200F02EF8012001F0BEF945E70FF2F5
:10E5B000284200F026F80FF22842032100F022F84A
:10E5C0000FF22842042100F01DF80FF22C42052121
:10E5D00000F018F80FF23442C7E700F0D6FABFF3A4
:10E5E0004F8FC648C64A016801F4E06111430160DB
:10E5F000BFF34F8F00BFFDE705EA000202A801F05C
:10E60000BDBA0221002000F084BBB848007915286B
:10E6100004D0182804D0192801D07047AAE6C8E60B
:10E62000F6E610B500F03EFF9AE030B585B06846DA
:10E63000142101F0D7F9AD4C2179207B15294FF435
:10E640007A7507D032D317291DD016D319290BD0CC
:10E6500021D32BE0A06842F6F82100F57A708842B9
:10E66000A06026D1A56024E0A068B0F57A70A06013
:10E670001FD142F21070A0601BE00A382073C0B2B4
:10E68000A0B9642005E00A302073C0B26E280DD115
:10E690000A2020730AE0FFF752FE00F079F801200B
:10E6A0002070A5603220207301F00BF82079182823
:10E6B0001CD0042000F085FA062000F082FAA2683F
:10E6C0000FF25C31684601F059FA6A4600F010F822
:10E6D000227B0FF25831684601F050FA6A46062153
:10E6E00000F007F8217BA06800F0EDFF05B030BD19
:10E6F0000421002000F00DBB10B5042000F061FAE9
:10E700007A4C2079152807D01DD317280DD009D3AE
:10E71000192804D011D310BD0FF21C3207E00FF2FC
:10E72000283204E00FF2303201E00FF23C32BDE853
:10E7300010400421002000F0ECBAFFF700FE00F0CA
:10E7400027F80120207010BD10B500F01FF800F070
:10E750001FF801202070BDE8104001F0A4B810B5EA
:10E76000624CFFF7ECFDA1780022002000F0B7FA20
:10E770000120207010BD10B500F008F800F008F876
:10E7800001202070BDE8104001F057B9574CD6E584
:10E79000A1780022002000F0A2BA10B5534C2079D5
:10E7A000182888B052D0192858D103A8142101F094
:10E7B00019F9002002908DF8040001A839DF9DF8B6
:10E7C00004000428A4BF03208DF804009DF8041061
:10E7D00002A83ADF029800F0FF006421642400F0F0
:10E7E00042F800F0C9FF0298C0F3072000F03AF8A1
:10E7F00000F0C9FF0298C0F3074000F033F800F0C2
:10E80000D9FF042000F0DDF90298C0F3074064232B
:10E81000B0FBF3F304FB13000299029A0090C1F3DA
:10E8200007216420B1FBF0F004FB101302F0FF029B
:10E830006420B2FBF0F004FB10220FF2402103A889
:10E8400001F09CF903AAFFF753FF07E000F087FFF0
:10E85000FFF775FDFFF79CFF0120207008B010BD89
:10E860004F4B00006421B0FBF1F104FB1100C0B27A
:10E87000704710B5FFF78AFFFFF78AFF012020706D
:10E880004FF000701F49086010BD10B501F075F819
:10E8900066E710B50023154C1B4A20710C21152882
:10E8A0000BD019D3172810D00BD3192811D03FBF84
:10E8B00020784843101843790EE000F027F8437899
:10E8C0000AE000F023F8C37806E000F01FF80379AF
:10E8D00002E000F01BF8837811FB03F0104480681D
:10E8E000010002D0BDE81040004710BDE436002012
:10E8F00000FFFF0064070050080500500CED00E029
:10E900000400FA050C050050C82500202078484373
:10E91000104470474265657020546573742100008F
:10E92000467265713A31303030487A0044757479F6
:10E930003A353025000000004B657920546573742A
:10E940003A0000004C6967687420414443207465B4
:10E9500073743A00466C6173682069642069733A85
:10E9600025780000577269746520746F203078250F
:10E97000783A0000307830302D307846460000007C
:10E9800030782578207265616420636865636B3A2E
:10E99000000000004572726F7200000050726573D3
:10E9A00073206B657920646F776E3A00523A353088
:10E9B00020473A353020423A353000004D6F746FB1
:10E9C00020746573743A0000426174746572792032
:10E9D000746573743A00000056312E300000000058
:10E9E00044656320313320323031380031343A33DA
:10E9F000323A313500000000537570706F72742028
:10EA000062792072665F736D6172740072662D7335
:10EA10006D6172742E74616F62616F2E636F6D0031
:10EA2000467265713A2564487A000000447574792D
:10EA30003A256425000000004B6579207570205050
:10EA400072657373210000004B657920646F776EE7
:10EA500020507265737321004B6579206C65667474
:10EA600020507265737321004B6579207269676865
:10EA7000742050726573732100000000523A2564BF
:10EA800020473A256420423A256400004D5055360F
:10EA90003035300000004265657000000000000065
:10EAA0004B6579000000000000004C696768742025
:10EAB00041444300466C6173680000000000524707
:10EAC00042000000000000004D6F746F0000000065
:10EAD00000004261747465727900000056657273BB
:10EAE000696F6E000000517569740000000000003D
:10EAF0001FB50FF23C500FC86C4684E80F001E2073
:10EB00008DF8000000221F208DF801006946FF20CB
:10EB10008DF802004FF00040029000208DF80D00AB
:10EB2000DFF8700201F05DF81FBD80B5FFF7E0FF70
:10EB3000DFF86402032101604160C16001BD11B5CD
:10EB4000DFF8584281B00820606000231020606028
:10EB500000F013F8102020600CE011B5DFF83C4203
:10EB600081B00820606000231020206000F005F8CC
:10EB7000102060600820206013BD0122002000905A
:10EB800001A9DFF8100201F0CCB810B5B020FFF7F2
:10EB9000D6FF00F028F800F024F8002400F0CFF8A9
:10EBA00004F07F007F2807D1E011B13000F0CCF8ED
:10EBB00000F019F800F015F8641CB4F5806FEDDB77
:10EBC00010BD10B540F0B000FFF7B9FF0F20FFF700
:10EBD000B6FF00F006F8802400F0B1F8641EFBD107
:10EBE00010BD1020ABE70020A9E710B5FFF79DFF8F
:10EBF000DFF8A841082020600A2001F0B1F9402088
:10EC000060600A2001F0ACF940202060AE20FFF7E0
:10EC100096FFD520FFF793FF8020FFF790FFA820F5
:10EC2000FFF78DFF3F20FFF78AFFD320FFF787FF15
:10EC3000FFF7D9FF4020FFF782FFFFF7D4FFFFF770
:10EC4000D0FFA120FFF77BFFC820FFF778FFDA2075
:10EC5000FFF775FF1220FFF772FF8120FFF76FFFAC
:10EC6000CF20FFF76CFFD920FFF769FF2220FFF7C5
:10EC700066FFDB20FFF763FFFFF7B5FFA420FFF778
:10EC80005EFFA620FFF75BFF8D20FFF758FF1420E3
:10EC9000FFF755FFAF20FFF752FFBDE8104074E7C4
:10ECA00070B5062515FB00F600F015F800F044F8E5
:10ECB0003606300F00F047F800260FF2441015FB1F
:10ECC00004F108443044761C10F8C00CFFF745FFEF
:10ECD000062EF2DB70BD144641F0B0002FE770B590
:10ECE0001446062210FB02F5FFF7F6FF00F02EF89F
:10ECF0002D06280F00F027F800250FF22C362000F3
:10ED000014BF0020705DFFF728FF6D1C062DF6DB99
:10ED100070BD70B500F00CF806E016F8012B29461E
:10ED2000E0B2FFF7BDFF641C30780028F5D170BD5C
:10ED300004460D461646704706F00F00FFE6002019
:10ED40000BE73006000F1030C0B2F8E605F00F00F8
:10ED5000F5E680B5FFF719FF11480FF24802C168C8
:10ED600021F48071C16000200021FFF7D2FF0FF273
:10ED70004C0202210020FFF7CCFF0FF258020421C1
:10ED80000020FFF7C6FFBDE808400FF26002062131
:10ED90000020BEE7C42600200C07005008050050E4
:10EDA000E43600205468616E6B20796F7520666FC1
:10EDB000722063686F6F73696E0000006720424CB9
:10EDC00045204D756C7469626F61726420616E6478
:10EDD0000000000072665F736D617274215E5F5E99
:10EDE00050726573732073656C0000006563742056
:10EDF0006B657920656E746572207465737421008B
:10EE00000000000000000000002F000000000700CC
:10EE1000070000147F147F1400242A7F2A12006246
:10EE200064081323003649552250000005030000F2
:10EE300000001C224100000041221C000014083E7A
:10EE400008140008083E0808000000A06000000840
:10EE50000808080800006060000000201008040294
:10EE6000003E5149453E0000427F40000042615152
:10EE70004946002141454B31001814127F100027EC
:10EE800045454539003C4A494930000171090503AF
:10EE900000364949493600064949291E00003636E0
:10EEA0000000000056360000000814224100001443
:10EEB0001414141400004122140800020151090620
:10EEC00000324959513E007C1211127C007F4949A1
:10EED0004936003E41414122007F4141221C007FD2
:10EEE00049494941007F09090901003E4149497AE0
:10EEF000007F0808087F0000417F4100002040415A
:10EF00003F01007F08142241007F40404040007FC5
:10EF1000020C027F007F0408107F003E4141413E09
:10EF2000007F09090906003E4151215E007F091951
:10EF300029460046494949310001017F0101003F4E
:10EF40004040403F001F2040201F003F4038403FCE
:10EF50000063140814630007087008070061514932
:10EF6000454300007F41410000552A552A550000C5
:10EF700041417F0000040201020400404040404043
:10EF8000000001020400002054545478007F4844DB
:10EF9000443800384444442000384444487F003812
:10EFA0005454541800087E0901020018A4A4A47C3B
:10EFB000007F080404780000447D40000040808405
:10EFC0007D00007F102844000000417F4000007C4D
:10EFD00004180478007C0804047800384444443859
:10EFE00000FC242424180018242418FC007C0804A5
:10EFF000040800485454542000043F444020003C7E
:10F000004040207C001C2040201C003C4030403C04
:10F01000004428102844001CA0A0A07C0044645494
:10F020004C44141414141414003E1C080000000076
:10F03000020304FF06FF0000000000400000000083
:10F040001CB50FF284300A24D0E90023D3480168AC
:10F05000CDE90023684600F0B8F89DF80400401C94
:10F060000A2190FBF1F000F13002D2B20021002021
:10F07000FFF716FE9DF8040000F058F80120FFF796
:10F080000FFE2E2200210220FFF70AFE9DF803004A
:10F09000401C00F044F80320FFF702FE9DF8030037
:10F0A00000F044F80420FFF7FBFD2022002105209A
:10F0B000FFF7F6FD9DF8020000F031F80620FFF79B
:10F0C000EFFD9DF8020000F032F80720FFF7E8FDA1
:10F0D0003A2200210820FFF7E3FD9DF8010000F02F
:10F0E0001EF80920FFF7DCFD9DF8010000F01FF875
:10F0F0000A20FFF7D5FD3A2200210B20FFF7D0FDB3
:10F100009DF8000000F00BF80C20FFF7C9FD9DF8FA
:10F11000000000F00CF80D20FFF7C2FD13BD90FBBE
:10F12000F4F000F13002D2B200217047401C0A21F5
:10F1300090FBF1F104FB110000F13002D2B200218A
:10F14000704796480168491C01609548C068C0F343
:10F150000020002818BFFFF773BF70471CB50FF2DF
:10F1600070208E4CD0E90023CDE900234FF4FC60E1
:10F17000ADF8060004208DF8040015208DF803007A
:10F180000C208DF802000020ADF80000684600F069
:10F19000B7F820600121834A0FF23C2001F095F975
:10F1A00000224FF40041201D01F0C1F913BD1F22C0
:10F1B000012908BF00F11C0205D00729A8BF491E7C
:10F1C000C80748BF1E22D0B27047F8B5054676483A
:10F1D000B1FBF0F400FB14103C21B0FBF1F13C2238
:10F1E00002FB110129704FF461624FF46161B0FBC1
:10F1F000F1F102FB11003C22B0FBF2F06870A97043
:10F200004FF4FA60E880A4B24FF4B77040F26D1189
:10F2100064264FF4C87704E00B46E41A521CA4B2EB
:10F22000EA80BC46EA8892FBFCFC07FB1C2CBCF184
:10F23000000F0AD0B64692FBFEFE06FB1E2EBEF164
:10F24000000F04D000F055F801D1864600E08E464C
:10F2500074450FDBBCF1000F0AD0B44692FBFCFCF6
:10F2600006FB1C2CBCF1000FD6D000F042F8D3D125
:10F270000346D2E70020BCF1000F28710FD06420B4
:10F2800092FBF0F006FB102050B1500802EB90709A
:10F290008008A2EB8000401E8041C00F00E00120EA
:10F2A000002101E00020C9B2FFF781FF84421EDB8C
:10F2B0003A46241A2879411CE888297190FBF2F219
:10F2C000A4B207FB120282B1642290FBF2F206FBA9
:10F2D0001202002AE6D0420800EB92729208A0EBDC
:10F2E0008200401E8041C00FDDE70120DBE7EC70AB
:10F2F000F1BD530802EB93739B08B2EB8303704795
:10F300002DE9F8430446A1786278E57894F9047011
:10F310003C2010FB0121227800FB012864264FF4D9
:10F32000C87905E00020F9B2FFF741FF2D18ADB212
:10F330007F1E7FB2E088002F15D400F037F861B14E
:10F3400000F03AF8EED0410800EB91718908A0EB8B
:10F350008100401E8041C00FE5E70120E3E740F255
:10F360006D114D19ADB2401E80B2B0F5FA6F0FDBD2
:10F3700000F01CF849B100F01FF8F0D0410800EB94
:10F3800091718908B0EB8101E9D14FF4B771E8E7D9
:10F39000054800FB0580BDE8F283000040360020F0
:10F3A000E436002043F1010080510100494690FB02
:10F3B000F1F109FB11017047642190FBF1F106FBAB
:10F3C000110100297047000000000000000000004B
:10F3D0000000000000000000443600201FB50FF2BE
:10F3E000A4200FC86C4684E80F0010200090112064
:10F3F00001904FF0CC7002900023884C00226946A7
:10F40000204601F084F9204601F0DBF91FBD00B56C
:10F4100083B00022ADF804208DF804008DF80510AB
:10F420000092022301AA68217C4801F042FB07BD3B
:10F4300071B581B0012000900C461546774E01232E
:10F4400001AA6821304601F034FB2B462246682190
:10F45000304601F03CFB73BD80B5FFF7BFFF0021D4
:10F460006B20FFF7D4FF07211920FFF7D0FF0621FB
:10F470001A20FFF7CCFF01211C20FFF7C8FF18213D
:10F480001B20FFF7C4FF0FF2DD120FF2F410012171
:10F4900001F01BF8BDE80840002240F6CD4160486D
:10F4A00001F045B810B55D4C04F1080001F05FF8BB
:10F4B0002046BDE8104001F069B91FB504460FF2BF
:10F4C000A81000F029F83B2006E01FB504460FF213
:10F4D000A01000F021F84320FFF7AAFF9DF90100DA
:10F4E0009DF900109DF9032040EA01209DF90210CA
:10F4F000ADF8080041EA0221ADF80A1006229DF994
:10F5000004009DF9051040EA0120ADF80C0002A9A5
:10F510002046FEF717F91FBD0021D0E90023CDE9F1
:10F520000223CDE9001106226946704780B500200C
:10F53000ADF80000022269464120FFF779FF9DF9EE
:10F5400001009DF9001040EA012000B202BD50B553
:10F5500087B004A8FFF7B1FF02A8FFF7B6FFFFF7D7
:10F56000E5FF044668460021C0E900110FF20816C5
:10F57000BDF91020314600F001FB00F064F800F006
:10F5800069F800F06AF8BDF9122000F04BF800F0BD
:10F590005AF80820FFF7BDFB00F05FF8BDF9142012
:10F5A00000F040F800F042F8022100F053F800F0BB
:10F5B00054F8BDF9082000F035F800F03DF800F0EF
:10F5C00049F800F04AF8BDF90A2000F02BF800F0E5
:10F5D00033F80820FFF79DFB00F03FF8BDF90C2041
:10F5E00000F020F800F022F8042100F033F800F0D9
:10F5F00034F8222094FBF0F000F26D1212B206A152
:10F60000684600F0BBFA00F011F8052100F022F87E
:10F6100007B050BD0000000025306400A025002088
:10F62000A82500203146684600F0A8BAC0B20021E3
:10F630000DF800106A467047C0B200210DF80010A6
:10F640006A4603217047C0B200210DF800106A46D7
:10F65000012170470020FFF75CBB0621684600F0DF
:10F66000C1B9000073E700000000000000000000C6
:10F67000000000000000000025303564000000009C
:10F68000A8250020000000000100000000009801F3
:10F690000600000010B50FF2381184B01CC968468E
:10F6A00069461CC01D208DF800000022FF208DF847
:10F6B00001008DF802008DF80300424801F0CDFAF8
:10F6C0001FBD10B54CE07FB53F4A404CB2FBF0F592
:10F6D00001FB05F06421B0FBF1F020816E460FF2D2
:10F6E000FC000FC886E80F00E068C0F80855022348
:10F6F0000122694604F10C0001F020FB7FBD30B50A
:10F700000FF2E80187B01CC9684669461CC01B207F
:10F710008DF800001A208DF801001C208DF80200E1
:10F72000FF208DF8030002208DF80A000022274CEC
:10F7300004F10C0001F091FA0FF2BC000FC803AD08
:10F7400085E80F00E1686420C1F808050223012262
:10F7500003A904F10C0001F0F1FA07B030BD10B5B7
:10F760001A4C012104F10C0001F01CFB04F10C0007
:10F77000BDE8104001F0B2BA30B5144C208085B01D
:10F780000FF2840005E030B5104C608085B00FF2B8
:10F7900088000FC86D4685E80F00E1686420C1F855
:10F7A000080502230122694604F10C0001F0C6FAA3
:10F7B00005B030BD30B5054CA08085B00FF26800B3
:10F7C000E7E70000D826002040420F00CC260020AA
:10F7D0000203040506040000E8030000D42600200C
:10F7E0000100000001000000000000000203040509
:10F7F00006040000E8030000CC26002004000000FE
:10F800000100000000000000CC26002004000000E1
:10F810000100000000000000CC26002004000000D1
:10F820000100000000000000CC26002004000000C1
:10F830000100000000000000704730B585B00024D2
:10F84000ADF8004064256946042001F02EFCBDF9A6
:10F85000000024186D1EF6D101A8102100F0C2F896
:10F860000420FFF7AEF9642094FBF0F20FF2401190
:10F8700001A800F083F900F052F805B030BD1CB5C6
:10F8800000F06CF80FF24C1000F06DF83F4A0FF2E8
:10F890003C10012100F019FE002240F6CD413C4809
:10F8A00000F045FE13BD80B501F094FBBDE80240B9
:10F8B000374800F05CBEF0B587B00024354DADF898
:10F8C00000404FF400762E600A2000F049FB6427C8
:10F8D0006946012001F0E9FBBDF9000024187F1EF4
:10F8E000F6D16E6001A8142100F07CF80420FFF727
:10F8F00068F92046FEF722F90022274BFEF7F6F9B9
:10F900000022264BFEF7C4FA02460B460FF2A8016E
:10F9100001A800F033F900F002F807B0F0BD01AA29
:10F9200004210020FFF7F5B91CB500F017F80FF21D
:10F93000AC0000F018F81A491A4A032008600121A7
:10F940000FF28C0000F0C1FD00224FF48031164808
:10F9500000F0EDFD0020FFF7AEFF13BD0446134994
:10F96000002001F00ABB6946D0E90023CDE900235D
:10F970008DF80640204601F057BB80B501F02AFB08
:10F98000BDE80240084800F0F2BD00003BF801006D
:10F990006436002008050050000022400040EF407F
:10F9A00024070050B7F801008436002039F8010020
:10F9B000252D346400000000426174746572792062
:10F9C000766F6C743A25312E32665600643600200C
:10F9D000843600200000000002000000000000004B
:10F9E00002000000002201F005BCFEE71FB50FF287
:10F9F0007C100FC86C4684E80F000B208DF80000C7
:10FA000000220C208DF8010069460D208DF80200BF
:10FA10004FF00040029000208DF80D00504800F09B
:10FA2000E0F81FBD80B5FFF7E1FF4E4903200860F5
:10FA30004FF480604C49086001BD494800F056B958
:10FA40003EB5002002909F20474C8DF804004FF4F3
:10FA5000806565600A2000F083FA0420009002AB04
:10FA6000012201A93E4800F05CF9256002983EBDE4
:10FA700031B53D4C82B04FF48065656000F038F8D8
:10FA8000012202A9364800F04CF9256037BDF0B5D7
:10FA900083B0044601A8002202600A208DF8040009
:10FAA0008DF80710080C8DF80500080A8DF806007F
:10FAB0000620FFF7DDFF2C4D294F4FF480666E6066
:10FAC00000F016F800F037F800F012F88022214616
:10FAD000384600F026F900F00BF8802204F180018E
:10FAE000384600F01EF92E60322000F039FAF7BDDA
:10FAF0000020009000237047F0B583B0044600F06A
:10FB000024F8194D8DF806008DF807104FF4806623
:10FB10006E6000920023124F00F00DF880200090DC
:10FB2000234600F00DF88020009004F1800300F0DF
:10FB300007F82E60F7BD042201A9384600F0F1B89D
:10FB400000220021384600F0ECB801A80022026033
:10FB500003208DF80400080C8DF80500080A704792
:10FB6000E82000202807005008050050020304FF89
:10FB700006FF000000000040000000000CB41CB5AF
:10FB8000044604A801900A46009401AB6946074860
:10FB900078441830FCF734FC009A002111700028DA
:10FBA0005CBF0098001B16BC5DF80CFB0FDAFFFF72
:10FBB00041EA420141EA8302009942EA01220199A5
:10FBC00042EA0141B94A42F82010704700B583B0BB
:10FBD000002101910091002301220121FFF7E8FF9C
:10FBE00007BD2DE9F04F044683B06079DFF8C0927D
:10FBF00009EB40160F46317E09B1082074E01FB9A9
:10FC00000FF2C42101EB001732603878397BA94D1F
:10FC10004FF0010808FA00F00229B4BF68602860BC
:10FC2000A2493A7841F822804FF0FF3B97F801A0B3
:10FC3000BAF1FF0F06D008FA0AF068605046FFF7E5
:10FC4000C5FF00E0DA46B878FF2809D083460020D7
:10FC5000019000900023002200215846FFF7A8FFE2
:10FC6000F878FF2805D008FA00F02860F878FFF748
:10FC7000ADFF6079F97809EB401081764FF4A0610F
:10FC800020683A7801448A60C1F80CA0C1F810B02D
:10FC9000BA684A627B7B3A7B03B10123012A09D00F
:10FCA0000AD3032A03D038BF43F0040304E043F02F
:10FCB000060301E043F002034B6562797B7909EBAF
:10FCC0004212D376326812B10422C0F80423C1F87C
:10FCD0000080306820B1397994F9040001F0A4FA69
:10FCE0000020707686F81880BDE8FE8F10B5427946
:10FCF0006F4901EB421102680B686BB190F9040087
:10FD0000012300F01F04A3406B4C400944F820304D
:10FD10004FF0FF30C2F808030020C2F80005087653
:10FD200010BD00B585B000918DF80420029300222B
:10FD300006998DF80C10694600F06BF805B000BD0F
:10FD400038B54FF4A362104402688DF800200C7D92
:10FD50000A7FA24203D29DF800300C69A3540A7FA7
:10FD60000C7B521C0A77D2B2531C9BB2A34202DA1C
:10FD70008968C95C03E00D7DAB4202DAC97E41604F
:10FD800006E01046A04203D3AA428041C00F32BD14
:10FD9000012032BD38B504460D46002028770421E5
:10FDA0004FF44170204441600021C4F808111179DA
:10FDB00000291ABF11680978E97EC4F81C15117969
:10FDC000022902DB1168497803E0117B022902DB7A
:10FDD000E97EC4F81C15296811B10421016031BD08
:10FDE000D4F808010028FBD00020C4F808012946F7
:10FDF0002046FFF7A5FF0028F2D1A87E00F001F809
:10FE000031BDFF2804D0012101FA00F02949086022
:10FE10007047F8B50D4604462548617900EB411757
:10FE20001646787E08B11120F2BD386820B116F070
:10FE3000140F04BF0120787695E80F0007F1080C35
:10FE40008CE80F00787F00F0FC007877B87EFF2800
:10FE500004D0012101FA00F0184908601EB1002009
:10FE600078760620F2BD20682A463946FFF792FFD1
:10FE70000020F2BD10B50C460021C0F80811214643
:10FE8000FFF75EFF50B9A07EFFF7BBFF0020607652
:10FE90002071201D2168BDE81040084710BD0449AD
:10FEA0004FF04020E6E706490648E3E70007005028
:10FEB000C03400200805005080E100E00C0500502F
:10FEC000E034002000300240020304FF06FF00007F
:10FED0000000004000000000020304FF06FF0000D5
:10FEE0000000004000000000401E00BF00BF00BF37
:10FEF00000BF00BF00BF00BF00BF00BF00BF00BF0A
:10FF000000BF00BF00BF00BF00BF00BF00BF00BFF9
:10FF100000BF00BF00BF00BF00BF00BF00BF00BFE9
:10FF200000BF00BF00BF00BF00BF00BF00BF00BFD9
:10FF300000BF00BF00BF00BF00BF00BF00BF00BFC9
:10FF400000BF00BF00BF00BF00BF00BF00BF00BFB9
:10FF500000BF00BF00BF00BF00BF00BFC4D17047DB
:10FF600001B506E00098401E009040F2E730FFF730
:10FF7000BBFF00980028F5D101BDFEE7012100F08C
:10FF80001F029140DFF83C2605E0012100F01F022E
:10FF90009140DFF83426400942F8201070470121D3
:10FFA00000F01F029140DFF82426F4E74901002801
:10FFB00007D5DFF81C2600F00F00104400F8041CE1
:10FFC0007047DFF81026115470470000401E00BF34
:10FFD00000BF00BF00BF00BF00BF00BF00BF00BF29
:10FFE00000BF00BF00BF00BF00BF00BF00BF00BF19
:10FFF00000BF00BF00BF00BF00BF00BF00BF00BF09
:020000040002F8
:1000000000BF00BF00BF00BF00BF00BF00BF00BFF8
:1000100000BF00BF00BF00BF00BF00BF00BF00BFE8
:1000200000BF00BF00BF00BF00BF00BF00BF00BFD8
:1000300000BF00BF00BF00BF00BF00BF00BF00BFC8
:10004000C4D1704710B5DFF89015DFF890454FF434
:10005000003008604FF48031DFF8840501640160EE
:100060000120206000F026F9012060600020DFF808
:100070007445206100F01EF90020E07010BDF0B55D
:10008000DFF86005C168027813465A1E002B46D07F
:100090008368D2B203EBC2031C781BE03546F669D5
:1000A000C6B1BE42FAD1B54202BFDCF81C70C760CF
:1000B000002F08D1DFF830C50127CCF800700027E9
:1000C0000761012707713768F669EE6116B1356877
:1000D0007D193560E5B25E78B542D5D05D68E4B291
:1000E000182616FB04F63544641C9F78E6B2BE421F
:1000F0002E7808BF0024022E02D0032E06D0E9E796
:100100006F68D0F80CC065462E46C9E7C568002D5B
:100110001FBF00262E74ED69C560F7D1DAE7C0680D
:10012000884201D00120F0BD0020F0BDF0B5DFF81D
:10013000B414CA680B780C691D466B1EDBB22DB96E
:10014000C86890426DD00120F0BDCD60A0BB8D6825
:1001500005EBC3052E786F78BE42EDD037466E684A
:100160004FF0180C1CFB07FC7F1C66442F70FFB27D
:1001700095F802C0674504BF00272F70377875686F
:10018000012F04BF2F7C002FE1D1B7686F60F768A3
:10019000AF603769EF607669AE610E790EB1002607
:1001A0006E606E68DFF844C4371B27F07F476745F1
:1001B00005D2AE68F6190AE00546E869F1E7A61B24
:1001C000AF6826F07F46BE4234BFBE1B00262E60BD
:1001D00000266E60AE6001262E740026EE61CE68A9
:1001E000002EB2D03768D5F800C0674504D3A7EB1E
:1001F0000C073760EE61A8E73746D7F800E0E64520
:1002000006D23E46FF69002FACEB0E0CF5D103E0A1
:10021000AEEB0C0EC7F800E0C5F800C0EF61F56169
:1002200094E70020F0BD2DE9F843DFF8B843E0681B
:1002300000283AD0D0F80080DFF8B4532E68276940
:10024000F01B20F07F4000F10309E07898B9DFF857
:10025000A4034FF48031016401601120FFF79FFE79
:100260001120FFF78BFEDFF890130120086000F0EB
:1002700021F80120E070C14538BFC14609EB0700F5
:1002800020F07F40E863801B2968891B21F07F41B3
:1002900020F07F40C91C88420AD22868E86300F039
:1002A00009F8BDE8F24311206FE6BDE8F143C9E665
:1002B000BDE8F1832F2089E62DE9F047DFF82463BC
:1002C000B37830697178D6F80C8000259942814660
:1002D0000A460DD0521CD2B2022A08BF002206EBF9
:1002E000820101274C69201820F07F40306101E035
:1002F000002400277270FFF7C2FEF1688246DFB16A
:10030000002310E0241AC318002010600846D169A9
:10031000D76847B103EB090E2EF07F4EC2F804E018
:100320009760D561054629B10A4610688442E9D232
:10033000001B10604FF0010AF1602846FFF7F6FE3F
:1003400000280EBFBAF1000F4046FFF76CFF0020F7
:100350003071BDE8F08710B542788478521CD3B272
:10036000A34208BF00220478D3B2A34201D10020E7
:1003700010BD0A701822416840785043084410BDEF
:100380002DE9F041974F8046B86882B00C4615467B
:100390001E46694600EBC800FFF7DDFF08B90420E0
:1003A00011E0012101704460914909688160C560D4
:1003B000066108994161B8689DF8001000EBC8001B
:1003C00000F0FCF80020BDE8F681F8B58B48854CBC
:1003D0000021016441648164C16401604160E66898
:1003E0009EB3834800682169401A002520F07F47AA
:1003F0003068874216D33F1A45193046F669017CAA
:1004000071B10021017442698169E369180005D066
:100410001046984720B100F029FF01E008469047B8
:10042000002EE5D1A0786178814201BF401CA07008
:10043000C0B2022804BF0020A070A07804EB8000A6
:1004400045611420BDE8F2409FE5F1BD34E72DE998
:10045000F0410546174617F003000E46984602D1B4
:10046000604C17B9A06007202DE0FFF7EBFD0320DB
:100470002070A760C4F81C80183700200022A168F3
:1004800001EBC0010A704A708E704F601821401C49
:1004900011FB06F103280F44F1DBE2606270A270E9
:1004A0001420FFF77CFD06211420FFF77FFD1420A8
:1004B000FFF764FD4E4E062175601120FFF776FDB3
:1004C000306820610020BDE8F081464B9B6843B155
:1004D000130018BF002801D1072070470068037C73
:1004E0000BB10820704703744174426100207047CB
:1004F000EFF30580C0F30800002816D0103840B292
:10050000002806D5324900F00F00084410F8040C0A
:1005100001E03049085C4009022802D0062802D0D8
:1005200003E0002070470120704702207047F8B5B3
:1005300004462C488068002818BF002C0D4616463B
:1005400005D0052D01D20720F2BD606908B9082049
:10055000F2BD607C01280CBF2F460027FFF7C8FFC3
:1005600000963B462A462146FFF70AFFF2BD70B5CA
:100570001C4D0446A868002818BF002C82B001D08A
:10058000606908B9082076BD00202074FFF7B0FF2D
:100590000646A868694600EBC600FFF7DCFE08B90E
:1005A000042076BD022101704460A8689DF8001007
:1005B00000EBC60000F002F8002076BD4170142068
:1005C000E3E4000000E100E000E200E080E200E09F
:1005D00018ED00E000E400E080E100E004100140DC
:1005E00008130140A436002008100140FFFF7F00DF
:1005F00004150140041301400010014000110140A6
:10060000405800B10120C0B270470000401E00BF3A
:1006100000BF00BF00BF00BF00BF00BF00BF00BFE2
:1006200000BF00BF00BF00BF00BF00BF00BF00BFD2
:1006300000BF00BF00BF00BF00BF00BF00BF00BFC2
:1006400000BF00BF00BF00BF00BF00BF00BF00BFB2
:1006500000BF00BF00BF00BF00BF00BF00BF00BFA2
:1006600000BF00BF00BF00BF00BF00BF00BF00BF92
:1006700000BF00BF00BF00BF00BF00BF00BF00BF82
:10068000C4D17047F8B50C46DFF81C052268DFF8C6
:100690001C6540F20C6140F822100125626840F8A8
:1006A00022100027216805FA01F13160616805FA1E
:1006B00001F1316040F20D61226840F82210626859
:1006C00040F8221000F021F8B0686168C840C00707
:1006D00001D57FB9F1BD206805FA00F070607F1C7C
:1006E00000F013F8206805FA00F0306000F00DF813
:1006F000092FE9DB606805FA00F0706000F005F88A
:10070000606805FA00F03060F1BD04207EE7F8B5BE
:1007100004460F462079DFF89814282515FB00F5CC
:100720000D4405F12206317809B10820F2BD1FB948
:100730000FF2884101EB00172A606B600020A8606F
:10074000F070B07039462046FFF79CFFDFF8580480
:100750003A6840F20C6140F822107A6840F82210A2
:100760004FF4A1622068796810443A6802604160E1
:10077000B968C161286828B12068397B0003001678
:1007800000F052FD012030700020F2BD10B502795A
:10079000DFF81C1428235A438C18216859B10168CA
:1007A00009030916012201F01F039A40DFF80434FF
:1007B000490943F8212000F010F8002084F82200B5
:1007C00010BD0279DFF8E813006828235A4311446A
:1007D0000522C0F80025022012E00279DFF8D013CC
:1007E000006828235A4311444FF0FF32C0F8082311
:1007F000D0F800220022C0F80022C0F80025012015
:1008000081F82200704718B51C78944206D2095D21
:10081000C0F81C151878401C187009E000F114018C
:10082000039818B101208860002012BD01200860E3
:10083000012012BD30B51C7894420ED2D0F8185564
:100840000D551978491C1970531EC9B2994205D12A
:100850000221C0F800120121016230BD9142FAD19B
:1008600030BD2DE9F04705460C464FF4827082B04A
:100870002E18207891469A4658B9DDF8288099F8C4
:10088000000040450CBF0127002700F040F828B1C8
:1008900024E000203062B06170602CE04FF48E7173
:1008A0002846FFF7ADFE70B10020B06100F02FF8D0
:1008B000A0B90B9800904B46424651462846FFF798
:1008C000A2FFB8B921E04FF484712846FFF798FEE3
:1008D00080B10020706000F01AF828B1002030626A
:1008E00001206861207005E04B464246514628468B
:1008F000FFF7A0FF47B14FF482712846FFF780FE53
:1009000010B10020306000E00120BDE8F6874FF410
:100910009271284674E62DE9FC47054689464FF456
:10092000827048440026066006628661466005F1D2
:100930002307C9F80062FE7009F108003E7001212A
:100940008161016092460A9C0094984605F1260355
:10095000424651464846FFF756FF286830B140F2FC
:100960008620A860A868C9F804030EE00194CDF8B9
:100970000080534605F1260239464846FFF771FFCD
:100980000028F3D1387800B103263046BDE8F68759
:100990002DE9F04304460D464FF48270284483B09D
:1009A000002606600662866104F1230799464660C8
:1009B000FE70B9F1010F3E700CBF02200120C5F896
:1009C00000029046012028622860206830B140F281
:1009D0008620A060A068C5F804030EE00196CDF85B
:1009E0000090434604F1260239462846FFF739FFB6
:1009F0000028F3D1387800B103263046BDE8FE83E5
:100A0000F8B504464FF4417008444FF0FF35456097
:100A100004F12105EE781EB1A16801601120F2BD3C
:100A2000980800F0010080F00100E870180701D577
:100A30000620F2BDA36104F10C00B2E8C010A0E8EA
:100A4000C0100C3A907884F820005068E06150782B
:100A5000C1F88805107801280ED0002806BF580973
:100A600000F001000120287028780090204693783B
:100A70005268FFF750FF06E0002028702046937868
:100A80005268FFF785FF216801B9E970F2BD38B5FA
:100A900012F0030F01D0062032BD13460A4601684A
:100AA0000079434C28256843204401B0BDE830401C
:100AB000A6E7FEB56C46002500260027E0C400F03E
:100AC00015F80899002914BF202200220AE0FEB57B
:100AD0000FF2F805B5E8C0106C46A4E8C01000F0AD
:100AE00005F800226946FFF7D2FFFEBD8DF8011020
:100AF00001928DF802307047F0B50C4604F12105E3
:100B000085B006462878019004F1260294F820006A
:100B1000009004F12301E3693046FFF7A2FE0028AC
:100B20003DD1A878F0B9207B022811BF0328E169E4
:100B30002269914216D1A1696269E37BE2614909A8
:100B400084F8203001F001010328297005D10091BB
:100B500020463146FFF7DFFE21E031462046FFF711
:100B600017FF1CE004F10C018CC901A88CC0A87807
:100B700050B1D6F8C404C6F8C404810748BF0120A8
:100B800002D4400702D502208DF800000020E87052
:100B9000207E400703D4616822686846904705B00C
:100BA000F0BD03490448A7E70007005008050050BE
:100BB000CC35002080E100E0003000400000000063
:100BC0000100000000009801060000000100000084
:100BD0000000000000000000405800B10120C0B239
:100BE0007047D0F80403084018BF0120704700EB9D
:100BF00041104FF4A461084411680160918841607C
:100C000091688160D168C1607047FFB500239B4C3B
:100C1000CD5CFF2D0ED025F0800601274DF8236016
:100C2000B740ED0914BF27606760954F032547F86B
:100C3000265003E04FF0FF354DF823505B1C042B8A
:100C4000E6DB006800215DF8213000EB8104491CDF
:100C50000429C4F86035F6DBFFBDF8B506460D463D
:100C60003079884901EBC004217909B10820F2BD2F
:100C700025B90C230FF2182158430D18226029467C
:100C80003046FFF7C2FF30684FF4A06101440122F3
:100C90000A6000F204562A89AB796F79B760336035
:100CA0007260EB7AAA7A42EA03220A610021C0F854
:100CB0000012C0F8001300224FF4827101448A61CF
:100CC000CA600A610A60216821B12979000300160F
:100CD00000F0AAFA012020710020F2BD10B50279BF
:100CE0006849006801EBC20102031216012302F0F9
:100CF0001F04A340644C520944F822300022C0F87B
:100D000000250A7110BD10B502240C71096871B17B
:100D10008221540748BF9221140748BF41F02001A7
:100D2000D206026848BF21F08001C2F800130021FA
:100D30000068C0F804110121C15010BD2DE9F04137
:100D4000884604464F482179164600EBC1072068C3
:100D50001D4642460021FFF74AFF20684246012116
:100D6000FFF745FF06F00100216800EB560292B242
:100D7000C1F81425EA0748BF102207D4AA0704D5F2
:100D800000280CBF0422082200E00022C1F8002243
:100D90003946EAB200282046BDE8F04114BF0C23D2
:100DA0000823B0E738B504460D4600F00EF830B918
:100DB000216801204860204600F007F808B10120B2
:100DC00032BD2800F7D1002032BD10B502792D497F
:100DD00001EBC2042179022901D0012010BD006875
:100DE0004FF48271FFF7F8FE08B10120207110BDA9
:100DF00070B504464FF482700D4626181021204627
:100E0000FFF7EFFE48B14FF4887100F032F820B1DF
:100E10000020F06001202968884720212046FFF744
:100E2000E0FE48B14FF48A7100F023F820B10020B1
:100E3000306102202968884780212046FFF7D1FED3
:100E400040B14FF48E7100F014F818B10020B06179
:100E5000296888474FF4827100F00BF840B10020F8
:100E600030600120287103202968BDE870400847E0
:100E700070BD2046B0E603490448B9E708050050B4
:100E8000000700502837002080E100E000C001404A
:100E90000203040506040000E8030000DFF8141351
:100EA000085800B10120C0B2704710B50001DFF84A
:100EB00008331C186260195010BD00290CBF802136
:100EC0004021400001FA00F07047FEB54FF48270F7
:100ED000FFF7E4FFDFF8DC42DFF8E052DFF8E06222
:100EE000C8B1002030608DF8000068680190DFF81C
:100EF000D4020068ADF80800E86810B985F827004A
:100F000006E06860A88A28810020E860012020604F
:100F10006846296888474FF48A70FFF7BFFF20B101
:100F20000020306185F82700F7BD2E6922E0B6FA6F
:100F300086F04FF00041C140800000F58C773FB251
:100F40008E433846FFF7AAFFA0B10020E0510120F0
:100F50008DF80000A7F58C70C0088DF804003F06DE
:100F6000B80E00F0010080F001008DF80500684621
:100F700029688847002EDAD1F7BD10B58F4A02F1F3
:100F800026031C780CB1082010BD0C0001D10720ED
:100F900010BD08B90FF25020116004788A490C6026
:100FA00044784C60012119700021597099701161C9
:100FB0006FF00041854C824A6160002111608178A8
:100FC000072000F031F902202060012080490860EC
:100FD000002010BD70B57F49802000F0AFF842F2CC
:100FE000107400E0641E4FF48A70FFF757FF08B9D1
:100FF000002CF7D17649714C002008606FF000405A
:101000007549086004F1260500206870002604EB8D
:101010004600807D10B1304600F024F8761C082E82
:10102000F5DB0020287070BD38B504460D4600F091
:1010300036F801D1112032BD00EB4400827D12B997
:101040004A78521C4A70A9798175E979C1752046A0
:10105000294600F01DF9EA79A9792046FFF725FF16
:10106000002032BD10B5044600F019F801D111205E
:1010700010BD00EB4400827D12B14A78521E4A70C6
:1010800000218175C17500222046FFF70EFF40F256
:10109000FF725249204600F056F8002010BD474824
:1010A00000F127010A78012A70472DE9F041DFF8A5
:1010B0000C8108F127050746287808B1112035E092
:1010C000012028700220414E7060454801600121D6
:1010D00041606878022808DB0024002200212046B5
:1010E000FFF7E3FE641C082CF7DB00F021F8314821
:1010F00001210160416042F2107700E07F1E4FF451
:101100008270FFF7CBFE08B9002FF7D12C490020E1
:1011100008606878022805DB002700F009F87F1CCA
:10112000082FFADB0220306000202870BDE8F08133
:1011300008EB4700C27D817D3846B6E60860012095
:101140002849086070472DE9F843044689461A4942
:10115000904601EB0411C9EA0840C860002120460E
:10116000FFF7ABFE61004FF000464A1C134F174DCE
:1011700026FA02F13A6919F5006F04D122EA010159
:101180003961686002E0114339612860012120461D
:10119000FFF793FE6100CE4040F2FF72396990453F
:1011A00003D1B1433961686002E03143396128609D
:1011B000BDE8F1830070004010750040A0350020AC
:1011C0000471004034760040F07500400473004024
:1011D0000075004080E100E00873004000F8FFFF68
:1011E0002C760040087000400100060062F30F22D8
:1011F00062F31F4200B500BF1300964694461039B3
:1012000028BFA0E80C50FAD85FEA417C28BF0CC088
:1012100048BF40F8042BC90728BF20F8022B48BF5D
:1012200000F8012B00BDFEE710B54901020006D50C
:101230000A4B00F00F04234403F8041C01E0084BA0
:1012400019544109012200F01F0002FA00F0054A7A
:1012500042F82100044A42F8210010BD18ED00E0D8
:1012600000E400E080E200E000E100E010B584B0BE
:1012700069460022002300241CC100F003F800F09E
:101280002FF81FBD02906A46002144F2010070470A
:10129000124A4B7802EB00100A781B0102F003029D
:1012A00003F030031A438B781B0203F4E0631A4304
:1012B000CB781B0303F480531A430B791B0403F40C
:1012C000E0231A434B791B0503F480131A43826011
:1012D0008A79C97941600260704700BF107500408B
:1012E000BFF34F8F0548064A016801F4E0611143DE
:1012F0000160BFF34F8F00BFFDE700BF0CED00E0C2
:101300000400FA0509E0D0F80403084018BF0120E2
:10131000C0B2704707E00CE000BF405800B10120A8
:10132000C0B2704700BF00F20C500160826070478D
:1013300000BF4FF4A163C15018448260704741EA76
:10134000420141EA8302009942EA0122019942EAFC
:101350000141DFF8302642F82010704700B583B015
:1013600000F00CF8012106E000B583B000220192E4
:1013700000920B460021FFF7E2FF07BD002101911B
:101380000091002301227047F8B50446012520682A
:10139000DFF8F465DFF8F47505FA00F030602068D6
:1013A000FFF7DCFF606800F02FF8DFF8E425A069A4
:1013B000DFF8E015127F0860002A607D227D10D0E2
:1013C00000F024F8FFF7AEFF207D01281AD100F0CD
:1013D0001AF800F021F8A268E1683846BDE8F84044
:1013E000A6E700F013F8FFF795FF207D012809D14B
:1013F00000F009F800F010F8A268E1683846BDE88E
:10140000F84088E7F1BDA0680021ADE7104388648B
:101410006268216838467047E06805FA00F030607D
:10142000E0689BE7DFF86835DFF86C151B7FDFF8B5
:101430006C253BB100231360136153615363DFF8E4
:10144000602503E0D3605363DFF858250A60014646
:101450000220FFF7E9BE70B5DFF834450546E07EAF
:101460000E4608B1082070BD0DB90FF27055687FA7
:1014700020772846FFF788FF6660286920603000E3
:101480001CBF287FFFF7CEFF217FDFF82005002952
:1014900014BF08210421016000202076E082012091
:1014A000E0760020A07670BDDFF80415002008600B
:1014B000DFF8DC048168828A895C828A521C82821D
:1014C000DFF8F00401607047F8B5DFF8EC04DFF8EE
:1014D000C054DFF8B864002404608463DFF8DC04DF
:1014E000A9680160A97D41600120B060686888B981
:1014F0004FF490713046FFF70FFF07464FF4AC7181
:101500003046FFF709FF50EA0701F1D000B10F2480
:101510000020A8752046F2BDF8B5DFF87444277F97
:10152000054638001EBF280C0004B0F1005F0E46CF
:1015300001D01020F2BD00F03CF808B11120F2BD3E
:10154000A675A560A08217B1BDE8F140BCE7DFF841
:101550006014DFF83864086000250120B060FFF7F0
:10156000A3FF6068F8B90CE000F01FF818B9A08A72
:10157000B0F5807FF8D1A08AB0F5807F18BFFFF763
:1015800093FFA08AA17D8842EED3A08AB0F5807F28
:1015900008BF0F2505D000F008F80028FBD0012077
:1015A000F0600020A0752846F2BD4FF48E713046E1
:1015B000A8E6DFF8DC03807D00B101207047DFF88A
:1015C00000040021C16101600120DFF8C013086040
:1015D0007047DFF8BC23DFF8EC03D37DDFF8E013BE
:1015E0001BB900220A600068704700230B60517E1F
:1015F0000068D3685854507E401C507670472DE9DF
:10160000F041DFF88C43A07E104308BFFFF7D7FFFF
:10161000606898BBDFF8B013DFF8705308604FF4D0
:1016200092712846FFF76EFE06464FF484712846F5
:10163000FFF768FE80464FF4A2712846FFF762FE6E
:10164000074647EA08003043E9D057EA060005D1CB
:10165000FFF7BFFF607EE17D8842E0D30020E075A8
:101660000EB1032010E00FB10F200DE0A07E002886
:1016700007BF012068600120286004E0DFF818132C
:101680004FF4017008600020BDE8F081F8B5DFF884
:101690000C3300241C605C63DFF83033DFF8EC426D
:1016A0001860596012B90120206005E0DFF82003BE
:1016B000016841F020010160DFF8D4526868C8B9C0
:1016C0004FF4887100F07AF806464FF4A27100F0EA
:1016D00075F807464FF4927100F070F847EA06017A
:1016E0000143EDD00021E97508B10320F2BD2FB10F
:1016F0000F20F2BDA8494FF4047008600020F2BD2D
:10170000F8B5A34B1C7F22001EBF020C1204B2F1DD
:10171000005F01D01020F2BD5D689F4E00224FF4A3
:1017200001774FF4047C25B1002C14BFC6F804C027
:10173000776093F817E0BEF1000F0DD01A7E3AB132
:1017400025B1002C14BFC6F800C037601120F2BDCF
:1017500001221861197603E0D975D8605A761A7695
:1017600014B1BDE8F84091E7BDE8F84047E710B58F
:10177000874C207FA17E084303D1FFF720FF012083
:10178000A07610BD00B585B001228DF80020019132
:101790008DF8080068467E4A0BE000B585B0002150
:1017A0008DF808008DF80010794A906891750190C5
:1017B000684611685268904705B000BD2046ABE509
:1017C0002DE9FF41714E4FF400713046FFF79BFD4C
:1017D000774C6F4D744F4FF4017890B14FF4927184
:1017E000FFF7E5FE68B10020A060C7F80080A87E82
:1017F00008B90120706000F0A8F8E87D00F0ADF8AD
:1018000023E004213046FFF77EFDF0B14FF48471F0
:10181000FFF7CDFEC8B1FFF7DCFEE87D697E8842A8
:1018200013D12A7EE968100004D0687E00F087F8A2
:101830006A7608E0A87E08B901207060C7F80080C9
:101840000020E875687EFFF79DFFFFF7AEFE60B1F0
:10185000A87DA98A814202D2FFF726FE05E0002179
:101860002160010018BFFFF798FF4FF4A271FFF746
:101870009EFE68B10020A062A87E08B10120306001
:10188000E87D28B10020E875E968687EFFF77AFFF7
:10189000BDE8FF81F0B53D4F85B04FF4927100F087
:1018A00067F83E4C3A4D4C4E38B10020606100F074
:1018B0004CF8306800F051F81EE04FF4887100F0E9
:1018C00057F8C8B1002020603068EA7DC1B291426B
:1018D00012D12A7EE968130009D03D4BD3F800C02D
:1018E0002CF0200CC3F800C000F029F801E0002221
:1018F000EA75C0B2FFF746FF4FF4A27100F038F866
:1019000000281FBF00206063E87D002806D000206B
:10191000E8753068E968C0B2FFF734FF4FF49071A2
:1019200000F026F800281FBF00202061A87D0028B5
:1019300003D03069C0B2FFF730FF05B0F0BDEA75E3
:101940002A69EA6000222A76704702208DF800009A
:101950002048016801600391704729686A688DF822
:101960000800E86801900020E8752876684610476E
:101970003846D1E40648007F002818BFFFF78ABF29
:101980001EE700000007005008050050002000403E
:10199000C4360020242500400423004010210040CC
:1019A00010030200800002000823004000250040D0
:1019B0001C2100401C2500402021004044250040FF
:1019C00008210040182500404421004034250040F3
:1019D00000220040802400403C250040060000001A
:1019E00008000000070000000500000000000000E3
:1019F000000000000000D601060000000870000A88
:101A000048700220704730B50D4683B004462888E0
:101A10000930824201D20C203EBD684671DFE8B930
:101A20002988082060541B212888401C2880062211
:101A300080B221540DF1010100F07EF92044FBF742
:101A400081FE2888801D28809DF8002002B1012297
:101A500080B222542888401C288000203EBD70B5EA
:101A6000054682B028780C46012804BF6978002911
:101A700001D1072076BD11888E1CB3421FD30128E7
:101A800004D168780818801C834218D3581A831E22
:101A9000ADF80030694610882044801C7DDF68BBAB
:101AA000297802290FD1BDF8001098B2884208D2D7
:101AB0000820ADF80030BDF80010FF290ED30C202F
:101AC00076BD0920F7E708200129F2D16E7899B296
:101AD000B14288BF3146ADF80010ECE71388491CCD
:101AE000E1541188491C118089B260541088401C4F
:101AF0001080BDF8001008181080002076BD2DE978
:101B0000FC470A9E0B9C37884FF0000E054688461E
:101B10009146F24606E030889DF80010401830806B
:101B20000AF1010A288882452DDA686850F82A00EF
:101B300001900022694601A865DF88BB9DF800007E
:101B40004845EDD1BEF1000F31889DF8002014BF4B
:101B5000002002205218101884421DDBBEF1000F35
:101B600009D1481C30804FF0010E80B203F800808C
:101B70003088401C3080694630881A1801A865DF1B
:101B80000028C8D00CE0BEF1000F08D03088C01B80
:101B9000401E80B2FF2801DD0C2001E0D855002056
:101BA000BDE8F6872DE9FC41089F099C0194164683
:101BB0000546984600970222FFF7A1FF38B9019425
:101BC00000974346102231462846FFF798FFBDE8AC
:101BD000F681F8B51446054620880E46811D8B42D5
:101BE00001D20C20F2BD298806290EDB40F6814780
:101BF000B9424FF6FF7301DB994206D16A88062A83
:101C000003DBBA4203DB9A4205D00720F2BD9942BA
:101C100001D08A42F9D30521315412212088401C79
:101C2000208080B231542088401C208080B231183E
:101C30002888FFF7E3FE21880818208080B2311839
:101C40006888FFF7DBFE2188081820800020F2BD9D
:101C500070B5044616460D46A0883188801C42188F
:101C6000921C934201D3FF2801D30C2070BD401C6D
:101C70006854FF213088401C308080B2295430885D
:101C8000401C308080B229182088FFF7B7FE3188C9
:101C900008183080A28811000BD0A16809B907206C
:101CA00070BD80B22844FBF74DFD3088A18808182C
:101CB0003080002070BD2DE9F04100F128080C466D
:101CC000D8F80000154690B3002708E080B2204401
:101CD000FBF738FD2888B188081828807F1CF8B2E7
:101CE00098F80410884224D2D8F80000FFB20C21E2
:101CF00011FB07F14618B088801CFF2801D30C2087
:101D000018E02988401C6054162100F015F8215471
:101D100000F012F821183088FFF770FE29880818A3
:101D20002880B2881100D9D0B1680029CED107200F
:101D300000E00020BDE8F0812888401C288080B2A7
:101D4000704700002DE9F043174683B005463C88F4
:101D5000002005F12C090E463880D9F8081061B131
:101D60000978032C10D302223270112300F0ECF812
:101D700092B2B1543988491C3980D9F80410B1B1F4
:101D80003A8802F112039C4276D31123B3541023F4
:101D900000F0DAF80F22B7F800C08B5C06F80C30C0
:101DA000521E3B8852B25B1C002A3B80F3D599F847
